:020000040000FA
:1000000080311428FF3FFF3F803120007F08F0003F
:100010000B1D0D280B118A31E82227001619161125
:1000200070082000FF00090080311628FC016930AB
:1000300084000030850007308A31FA228031A030F8
:100040008400003085002F308A31FA228031203040
:100050008400013085002E308A31FA228031083048
:1000600084008B308500CF30860000308700083058
:100070008A31F4228031F73084008E308500A03040
:100080008600013087002F308A31F422200087312A
:10009000982FD52922000C142000DC01DD01DE019F
:1000A000833021009E0005309D002000E901E90A0F
:1000B000E1290A305E06031DCF280A30F100003026
:1000C000F2005D08F4005C08F3008F31582780319E
:1000D00072082100A7007108A60000302000B400BB
:1000E0008030B5004430B6001230A4008330A50043
:1000F0003F30A60021002708FA002608F9008731C2
:10010000EB27803179082000A7007A08A8007B0837
:10011000A90084319C24803120002408B7002508E0
:10012000B8002608B90085315025803120003408F8
:10013000D5003508D6003608D7000030A40030308E
:10014000A5004130A6005508A7005608A80057088A
:10015000A90084319C248031200024082100A000C3
:10016000200025082100A100200026082100A2006F
:1001700000302000DB000030DA000030D900003011
:10018000D800DE0122000C10833021009E000930CF
:100190009D0002302000C7004708E900E129210046
:1001A0001B082000DC0721001C082000DD3DD029B1
:1001B00014305E06031D95290030B4000030B500F0
:1001C0000030B6003830A4008630A5003F30A600CD
:1001D0005B08A3005A08A2005908A1005808A00013
:1001E0008E319D26803120002008A7002108A8001C
:1001F0002208A90084319C24803120002408B70003
:100200002508B8002608B900853150258031200026
:1002100034082100A300200035082100A40020009C
:1002200036082100A50020302000B4008830B50039
:100230004430B600210023082000B7002100240824
:100240002000B800210025082000B9008531502584
:100250008031200034082100A3002000350821004F
:10026000A400200036082100A50000302000A400D2
:100270001030A5004530A600210023082000A7006B
:10028000210024082000A800210025082000A90042
:1002900084319C248031200024082100A300200008
:1002A00025082100A400200026082100A500003018
:1002B0002000B400A030B5004130B6002100230872
:1002C0002000B700210024082000B80021002508E4
:1002D0002000B900853150258031200034082100EC
:1002E000A300200035082100A400200036082100CA
:1002F000A50023082000B400210024082000B50038
:10030000210025082000B6008231F02220003408A8
:100310002100A300200035082100A4002000360899
:100320002100A5002000E901080021001B08200091
:10033000C700C80121001C082000C900CA014908E3
:10034000CA00C90147084904F10048084A04F200FC
:1003500021001B082000CC00CD0121001C0820003A
:10036000CE00CF014E08CF00CE014C084E04F30062
:100370004D084F04F4008C313A248031710820007C
:10038000D1007208D2000030D21BFF30D300D4005D
:100390005108D8075208D93D5308DA3D5408DB3DCF
:1003A0000130C7004708DE07E12920006908003A4C
:1003B00003194A28013A03195928033A0319D8287E
:1003C000E1290630C700C70BE329000021009D1476
:1003D00021009D1CED296400E829023020006906F7
:1003E000031DD5290830F1000030F2008B31EC23D9
:1003F0008031D52920002008A6002108A700220866
:10040000A8000310270D280DA9002908FB002308C8
:10041000A6002408A7002508A8000310270D280D12
:10042000A9002908FA007B080319222A7A087B020E
:100430000318292A7B03FF3A7A07A60019302602FF
:10044000031C292A2308A0002408A1002508A200D3
:1004500008007A08031908007B087A020318382A72
:100460007A03FF3A7B07A60019302602031808001A
:100470000630A6002608F900A21BF917A51B79175C
:10048000A117FF30A005FF30A1050030A205A41779
:10049000FF30A305FF30A4050030A5057A087B02D4
:1004A0000318742A0130A335A40DA50D890B532A16
:1004B0000130FA027A087B0603196F2A0130F9022B
:1004C0007908073903196F2A522A0130A236A10C84
:1004D000A00C890B662A0130A6002608FB077B08C2
:1004E0007A060319992A652A7B087A020318992A41
:1004F0000130A035A10DA20D890B792A0130FB0234
:100500007A087B060319952A0130F9027908073920
:100510000319952A782A0130A536A40CA30C890B5F
:100520008C2A0130A6002608FA077B087A06031DEC
:100530008B2AF91FAB2AFF30A006FF30A106FF303F
:10054000A2060130A007003003180130A1070030D7
:1005500003180130A207791FBD2AFF30A306FF3020
:10056000A406FF30A5060130A307003003180130B0
:10057000A407003003180130A507F9012008A307DC
:100580002108A43D2208A53DA51FD82AFF30A306B7
:10059000FF30A406FF30A5060130A3070030031882
:1005A0000130A407003003180130A507F901F90A4A
:1005B0002308F1002408F2002508F3007B08A600B8
:1005C0002608F4007908A7002708F5008631E02600
:1005D00071082000A0007208A1007308A2000800A2
:1005E0000030F1000030F2000030F3002000340849
:1005F000F4003508F5003608F6008F31C527823142
:10060000031C212B20003408F1003508F2003608C5
:10061000F3000030F4000030F5000030F6008F31B8
:10062000C52782310318192B21302100A800003082
:10063000A90000302000B4000030B5000030B60042
:10064000080020003408BD003508BE003608BF0091
:100650003409B7003509B8003609B900B70A0319DB
:10066000B80A0319B90AC8303707C4006E30383DDC
:10067000C500BE30393DC6000130C636C50CC40CBD
:10068000890B3D2B0030B7008030B8000030B90036
:100690003708BD023808BE3B3908BF3B0430B700FD
:1006A0003708C0004408BA004508BB004608BC0033
:1006B0003D08A4003E08A5003F08A6004408A70086
:1006C0004508A8004608A90084319C2482312000F6
:1006D0002408C1002508C2002608C3004408A4005D
:1006E0004508A5004608A6004108A7004208A80042
:1006F0004308A90084319C24823120002408C100D1
:100700002508C2002608C3004408A4004508A50027
:100710004608A6004108A7004208A8004308A9000F
:1007200084319C24823120002408C1002508C200A5
:100730002608C3000030A400C030A5003F30A6004A
:100740004408A7004508A8004608A90084319C2455
:10075000823120002408C4002508C5002608C600F0
:100760004108AA004208AB004308AC004408AD00B1
:100770004508AE004608AF008C31C9248231200004
:100780002A08C4002B08C5002C08C6000130C0028E
:10079000031D522B3408A4003508A5003608A60016
:1007A0004408A7004508A8004608A90084319C24F5
:1007B00020002408B4002508B5002608B60008006B
:1007C0008B132300151515132000E201E03071058D
:1007D000E000FF307205E10071081F39F50075086F
:1007E000E300740862020318982C64002000E401FE
:1007F000203064020318202C640020006408600785
:10080000F50061080318610AF600750823009100DD
:1008100076089200151415180B2C20006435203E24
:100820008600870123001308C03F1408C13F013030
:10083000F50075082000E40720306402031CFC2B3F
:100840002300151620006108230092002000600894
:100850002300910055309600AA3096009514951803
:100860002F2C0000000020302000630203185B2CB6
:10087000640074082000620203185B2C620873078E
:10088000F5007508860087010108F600F701633559
:10089000203E860087017608C03F7708C13F0130BF
:1008A000F5007508E2070130F5007508E307203010
:1008B0006302031C382CE301E401203064020318B6
:1008C000932C64086007F50061080318610AF600BC
:1008D0007508230091007608920020006435203EC0
:1008E00086008701403F23009300413F94001F3062
:1008F00020006406031D7F2C23009512812C230009
:10090000951655309600AA30960095149518862CA9
:10091000000000000130F50075082000E4072030D9
:100920006402031C612C2030E0070030E13DF12B14
:100930008B1723001511080020002408AA002508A1
:10094000AB002608AC0003102B0D2C0DAD002D08BC
:10095000AE002E08031DB32C0030A4000030A5000B
:100960000030A60008002708AA002808AB002908C4
:10097000AC0003102B0D2C0DAD002D08B300330877
:10098000031DC92C0030A4000030A5000030A600D3
:10099000080033087B3EAA002A08AE072408AA00F4
:1009A0002508AB002608AC001030AC36AB0CAA0C06
:1009B000890BD52C2A08AD002D08B3002708AA0002
:1009C0002808AB002908AC001030AC36AB0CAA0CE0
:1009D000890BE52C2A08AD002D08B3068030AA004B
:1009E0002A08B305A517A817FF30A705FF30A805EB
:1009F0000030A9050030AF000030B0000030B10079
:100A00000730AA002A08B200241C0C2D2708AF07C3
:100A10002808B03D2908B13D0130A636A50CA40C2C
:100A2000890B0D2D0130A735A80DA90D890B132DAC
:100A30000130B202031D042D0930AA002A08B200B9
:100A4000241C282D2708AF072808B03D2908B13DF0
:100A50000130A636A50CA40C890B292D0130B13626
:100A6000B00CAF0C890B2F2D0130B202031D202DCD
:100A70002F08F1003008F2003108F3002E08AA0018
:100A80002A08F4003308AB002B08F5008631E02675
:100A900071082000A4007208A5007308A6000800D1
:100AA00020003708BA003808BB003908BC00031022
:100AB0003B0D3C0DBD003D08C2004208031D672DE3
:100AC0000030B4000030B5000030B6000800340833
:100AD000BA003508BB003608BC0003103B0D3C0DC6
:100AE000BD003D08C3004308031D7D2D0030B40048
:100AF0000030B5000030B60008000030BF00003004
:100B0000C0000030C10089304307BA003A08C20271
:100B10003708BA003808BB003908BC001030BC36B2
:100B2000BB0CBA0C890B8F2D3A08BD003D08C300E1
:100B30003408BA003508BB003608BC001030BC369B
:100B4000BB0CBA0C890B9F2D3A08BD003D08C306AB
:100B50008030BA003A08C305B817FF30B705FF3038
:100B6000B8050030B905B517FF30B405FF30B5053D
:100B70000030B6051830BA003A08BE000130BF3563
:100B8000C00DC10D890BBF2D36083902031DCE2DB6
:100B900035083802031DCE2D34083702031CD72D2B
:100BA0003408B7023508B83B3608B93B3F1401306A
:100BB000B735B80DB90D890BD82D0130BE02031D14
:100BC000BE2D3F08F1004008F2004108F300420842
:100BD000BA003A08F4004308BB003B08F500863130
:100BE000E02671082000B4007208B5007308B60052
:100BF000080020006B1C042E2100AC016430200092
:100C0000A8002808ED000800053021002C02031878
:100C1000732E4E082000A80028082100C0004D08AF
:100C20002000A80028082100C10020008D1E1C2ED5
:100C30002100C201C20A222E02302000A80028088A
:100C40002100C200C30123082000A90021002408BC
:100C50002000AA00210025082000AB002908A800D8
:100C600028082100C40020002A08A8002808210024
:100C7000C50020002B08A80028082100C600200875
:100C80002000AC00210021082000AD002100220836
:100C90002000AE002C08A80028082100C600200073
:100CA0002D08A80028082100C70020002E08A80051
:100CB00028082100C8000A302000A8002808A30046
:100CC000C0308F318C27853101302000A8002808E2
:100CD0002100AC0701308C31E72464302000A800EB
:100CE0002808ED00080020006A1408008B3100235A
:100CF000863124000D08FA007A082000A200043092
:100D000024008D0021001D08FA007A082000A600AA
:100D100021009D0122001708FA007A082000A50092
:100D20002200970127001508FA007A082000A00089
:100D30000B08FA007A08A10088308B0004302700E5
:100D400095002000A70122000C1CA92E2000A7015D
:100D5000A70A21001708FA007A082000A3001B3018
:100D6000210097001508FA007A082000A4000A3034
:100D700021009500640063002000200827009500F2
:100D8000200021088B00220824008D002000260866
:100D900021009D0020002508220097000C10200053
:100DA00027080319D52E22000C1420002308210047
:100DB000970020002408210095002000EA14080074
:100DC00074080319E82E730872047104031DF92EC8
:100DD0000030F1000030F2000030F3000800013074
:100DE000F6007608F4070130F336F20CF10C890BAB
:100DF000F42EFE3073050319122FEF2E0130F6008A
:100E00007608F4070130F107003003180130F207CB
:100E1000003003180130F3070130F336F20CF10C07
:100E2000890B0D2FFF3073050319232FFE2E02307F
:100E30007402031C252F0130F4020130F135F20D4C
:100E4000F30D890B1E2FF21F172F74182D2FFF3053
:100E5000F1057F30F205FF30F3050310F40C740840
:100E6000F600F701F8011030F635F70DF80D890B93
:100E7000342F7608F1047708F2047808F304750833
:100E800003190800F31708006630F9000030FA0073
:100E9000FB01FB0A3B308D31442587310A302000AD
:100EA0006602031C080064000A302000E5006508A3
:100EB000A300B6308B314723873120006B1C802F75
:100EC00021003608031D442F3903031D442F370822
:100ED0002000E50065082100CE004C148B3163230F
:100EE00087318E31C826873121002E142000ED0174
:100EF0008B318123873103308C31AB248731442FF0
:100F000021004D083606031D442F4E083706031DE9
:100F1000442F80303906031D442F36308B31C023D7
:100F200087312000ED012100AC0120006A14442F1C
:100F30002000E801033068020318DF2F640020005E
:100F400068088D31D4258731200068088C311F2432
:100F50008731200068088E314926873120006808D3
:100F60008B31AF238731200068088B3119238731FB
:100F7000200068088D3105258731200068088C31F4
:100F800055248731200068088B31242387312000C5
:100F900068088D318A258731200068088B31D42379
:100FA0008731200068088E31722687310130200099
:100FB000E7006708E80703306802031C9E2F8B17C1
:100FC00064008F31262787318C318D2487318A3117
:100FD000EE228731E02F7908F1007A08F200F30160
:100FE0008E302000A0002008F400F5018631E026B4
:100FF0007108F9007208FA007308FB000800FF3F4F
:1015C000FF3FFF3FFF3FFF3F2000EC016B10080093
:1015D00021003214633020009500080020000D180F
:1015E0000800873144270800FE0012001E00FE0B91
:1015F000F52A0034640080010131890BFB2A003494
:1016000022008C1238308B31C02322008C16080047
:1016100003340F341E34273450348134CB34C23475
:101620002100CC018B3163238B3103308C31AB240F
:101630000800F1001E2B22008E1708007108023AE4
:1016400003191B2B232B0800F100292B23009501E4
:1016500008007108003A0319262B2E2B08005C3075
:1016600021004A06031D382BC5304B06031908001C
:101670008B319F23080020006D08031908000130FA
:10168000ED026D08031D08008531F92508002000D2
:10169000A5002508F9000030FA002308A40024085A
:1016A000FB003F308D314425080020006B142200E0
:1016B0008E132100CD018B3163236430FA007A0848
:1016C0002000EC0008000030F1009030F200CA3039
:1016D000F8007808F3000530F9007908F400833148
:1016E000E02308000030F1009030F200CA30F8002A
:1016F0007808F3000530F9007908F4008D31AE2543
:1017000008006430F1000030F2008B31EC238B31A3
:10171000803149208B312100AC018531F925080049
:1017200020006C08031908000130EC026C08031D4E
:1017300008006B1022008E1720006A1408005C302D
:10174000FA007A082100CA00C530FA007A08CB00F6
:10175000CC01CD01CE018B31632301000800F100E3
:10176000BA2B2000EE01FC01EF012100B501B3010D
:10177000B40108007108013A0319B12BBF2B08000E
:10178000F80022008C1278083F398038F70077087B
:10179000F9007930F1000030F200F301F30A8C31E6
:1017A000702422008C160800FB00E32B013020007F
:1017B000980008002000EC01EB018B3172238B3183
:1017C0008B312F2308007B08003A0319D62B013AEE
:1017D0000319DA2BEB2B0800F501F60172087602EB
:1017E000031DF42B71087502031808006400033010
:1017F000F4009730F300F30BFB2BF40BFB2B0032C0
:101800000130F5070030F63DEE2B22008C1201303E
:10181000F1000030F2008B31EC238C3122008C1669
:101820000130F1000030F2008B31EC238C310230BA
:101830008C3155248C3102308D318A250800F2001C
:10184000342C0630F100710821008C042730F1009F
:1018500071088D040E16D830F100710823008D0533
:10186000273024008D0008007208003A0319212C4B
:10187000392C0800F501F601711C422C7308F5079C
:101880007408F63D0130F335F40D890B432C01301B
:10189000F236F10C890B482C71087204031D3C2CA4
:1018A0007608F2007508F10008002000A400662CFC
:1018B00030308B31C0238C310530F1000030F20024
:1018C0008B31EC238C318D31FA250800200024085F
:1018D000013A03196F2C033A0319582C6F2C080096
:1018E000F6017308760203180800200091117608AB
:1018F000F400F5017408710786007508723D8700D1
:1019000001082400910020009119882C0000832CEC
:101910000130F4007408F607712C2000EF010D1D52
:101920006F146F080139F1007C0801397106031941
:10193000A12C7C106F1C9D2C7C142100B101200077
:101940006E147C1CA52CEE1408002100AA01AB012A
:101950002000EE100800F800F90178087902031859
:101960000800640022008E13C830F1000030F2003D
:101970008B31EC238C3122008E17C830F1000030FF
:10198000F2008B31EC238C310130F7007708F90736
:10199000AD2C20002C082B042A040319D12C8030F4
:1019A000AC062D08A0002E08A1002F08A2002A08CE
:1019B000A3002B08A4002C08A5008131FA212000E7
:1019C0002008AA002108AB002208AC000800F8009B
:1019D000F9017808790203180800640022008E13C8
:1019E0000530F1000030F2008B31EC238C31220005
:1019F0008E170530F1000030F2008B31EC238C3172
:101A00000130F7007708F907E92CF200172D2100C3
:101A10000E16D730F10071088E0524009512910141
:101A20000130950096014030940095160800720828
:101A3000003A0319072D013A0319222D033A03191D
:101A4000222D222D08002000A00022008C12200050
:101A500020083F394038FA007A08A1002130F1000F
:101A60000030F200F301F30A8C3170248D317708D5
:101A7000F1007808F2007908FA007A08F3008C3156
:101A8000702422008C1608002000A10022008C1275
:101A9000200021083F39C038A0002008A2002230D1
:101AA000F1000030F200F301F30A8C3170248D3123
:101AB0007908F1007A08F2007B082000A0002008D5
:101AC000F3008D31662522008C160800F80173089A
:101AD00078020318080020009111FF3024009100C3
:101AE00020009119752D0000702D7808F400F50183
:101AF00074087107F6007508723DF70076088600D5
:101B0000770887002400110881000130F400740870
:101B1000F807672D2000DF00A12DED012100AC01A9
:101B2000AE01080036308B31C0238D3133308B311C
:101B3000C0238D3134308B31C0238D318B318123E3
:101B4000080020005F08003A0319AD2D013A03197F
:101B50008D2D033A0319922DAD2D08002300151386
:101B6000F70174087702031808006400770871070A
:101B7000F50072080318720AF60075082300910038
:101B80007608920015141518C32D1308F500770870
:101B90007307F6007608860087017508810001301A
:101BA000F5007508F707B12DF200F12D0630210080
:101BB0009500733099000930970027009401950132
:101BC0006330200095008B16FB30F10071088B0507
:101BD0009101920121009101920108002100B201BE
:101BE00008007208003A0319D62D013A0319EE2DA8
:101BF000F92D0800A030F7000130F8002E30200049
:101C0000A3002308F90000308D3123258D31CF301A
:101C1000F7000030F80008302000A3002308F90086
:101C20003E308D3123258D312030F9000130FA000E
:101C30002E302000A3002308FB0000308D31442506
:101C4000080020006E1C362E0130F10071082100C2
:101C5000B10706303102031C362E20006E10210021
:101C6000B1017C1C352E3314362E35142000EE1CA9
:101C7000080001302100AA070030AB3D00302B02E4
:101C8000C93003192A02031C0800AA01AB0134144D
:101C90000800F2006C2E0630F100710821008C055E
:101CA0002730F10071088D051030F10071088E05A4
:101CB000F930F100710823008C05D830F10071086B
:101CC0008D051030F10071088E05FE30F1007108AD
:101CD00020008C058E1708007208003A03194B2E5D
:101CE000712E0800F200942E053021009D008330F3
:101CF0009E008130220097000630F1007108230019
:101D00008C0408002000E9012100A601A701003091
:101D1000A0000030A1000030A2000030A30000307D
:101D2000A4000030A50008007208003A0319742EC0
:101D3000013A0319822E9C2E08008E30F900790892
:101D4000FA00FF30200023050319B32E01302000D4
:101D5000A336A20CA10CA00C890BA72E0130F90010
:101D60007908FA07A12E2008F1002108F2002208C4
:101D7000F3007A08F9007908F400F5018631E026CD
:101D800071082000A0007208A1007308A2000800DA
:101D900021004E082000A80028082100C0004D089E
:101DA0002000A80028082100C10020008D1EDC2E84
:101DB0002100C201C20AE22E02302000A800280839
:101DC0002100C20081302000A80028082100C300A3
:101DD000C401C501C601C601C701C8010A302000FF
:101DE000A8002808A300C0308F318C270800473492
:101DF00046344E340B34D33491340A34083404342A
:101E00000034003406340034213463349134CA344D
:101E10008334023402343B34343407343F340834DE
:101E200016346C3403344034913487346B34FB34CF
:101E300056341634E9342A3400341F344134003423
:101E400059347F343F348134353409342100321C15
:101E5000332F32108B313B238F318E3121268F313E
:101E60008B3190238F312100331C3A2F33108B316B
:101E700055238F312100341C412F34108B31102316
:101E80008F3120006A1C4A2F6A100D1D4A2F86319F
:101E900076268F3121002E1C512F2E108A31E422FC
:101EA0008F312000EA1C0800EA108C31052408005C
:101EB000F601F701710872040319872FF801F80A77
:101EC000F21B6C2F0130F135F20D890B632F0130BD
:101ED000F5007508F807602F0130F635F70D890B0E
:101EE0006D2F72087402031D772F71087302031C93
:101EF0007E2F7108F3027208F43B76140130F2363B
:101F0000F10C890B7F2F0130F802031D6C2F77082D
:101F1000F2007608F10008002000A60036308B3170
:101F2000C0238F312530F9000030FA00FB01FB0A95
:101F30003B308D3144258F312730F9000030FA00D5
:101F4000FB01FB0A3A308D3144258F313B308B3118
:101F5000C0238F312730F9000030FA00FB01FB0A63
:101F60003A308D3144258F3120002608F7000030AB
:101F7000F8002308A4002408F9003F308D31232500
:101F80008F3135308B31C0230800F31FDB2F7109EF
:101F9000F7007209F8007309F900F70A0319F80A43
:101FA0000319F90A00307707F1000030783DF2009C
:101FB0008030793DF300F61FF12F7409F7007509A1
:101FC000F8007609F900F70A0319F80A0319F90A63
:101FD00000307707F4000030783DF5008030793D1F
:101FE000F6008030F3068030F60676087302031D93
:101FF000080075087202031D0800740871020800C9
:102000005C34C534003400340034FF3FFF3FFF3FF1
:10201000FF3FFF3FFF3FFF3FFF3FFF3FFF3FFF3FD0
:020000040001F9
:04000E001CEFFFD70D
:080000000C00060007000200DD
:00000001FF
