:020000040000FA
:1000000080311128FF3FFF3F803120007F08F00042
:100010000B1D0D280B119C31D82470082000FF0007
:10002000090080311328FC0169308400003085000C
:1000300007309C31EA2480312100EC01ED01EE0112
:10004000EF0120308400013085003C309C31EA24EF
:100050008031CF3084000130850011309C31EA249A
:100060008031553084009D3085005C308600013041
:10007000870011309C31E42480310E3084009130AF
:100080008500A0308600013087002F309C31E424A9
:1000900020009331102B2100DF00E00110306002BE
:1000A0000318662820302000E20021006008CF3EBF
:1000B000860087012000620881000130E2006208AA
:1000C0002100E00710306002031C5228E0011030CC
:1000D000600203187F2820302000E2002100600821
:1000E000BF3E860087012000620881000130E200E7
:1000F00062082100E00710306002031C6B28043006
:100100005F0603198F2805305F0603198F28063014
:100110005F0603198F2807305F06031D4F2AE00191
:1001200050302000E20021006008CF3E86008701A9
:100130002000620881000130E20062082100E0072F
:1001400072302000E20021006008CF3E8600870167
:100150002000620881000130E20062082100E0070F
:100160006F302000E20021006008CF3E860087014A
:100170002000620881000130E20062082100E007EF
:1001800067302000E20021006008CF3E8600870132
:100190002000620881000130E20062082100E007CF
:1001A00072302000E20021006008CF3E8600870107
:1001B0002000620881000130E20062082100E007AF
:1001C00061302000E20021006008CF3E86008701F8
:1001D0002000620881000130E20062082100E0078F
:1001E0006D302000E20021006008CF3E86008701CC
:1001F0002000620881000130E20062082100E0076F
:100200006D302000E20021006008CF3E86008701AB
:100210002000620881000130E20062082100E0074E
:1002200061302000E20021006008CF3E8600870197
:100230002000620881000130E20062082100E0072E
:100240007A302000E20021006008CF3E860087015E
:100250002000620881000130E20062082100E0070E
:1002600069302000E20021006008CF3E860087014F
:100270002000620881000130E20062082100E007EE
:100280006F302000E20021006008CF3E8600870129
:100290002000620881000130E20062082100E007CE
:1002A0006E302000E20021006008CF3E860087010A
:1002B0002000620881000130E20062082100E007AE
:1002C00065302000E20021006008CF3E86008701F3
:1002D0002000620881000130E20062082100E0078E
:1002E0003A302000E20021006008CF3E86008701FE
:1002F0002000620881000130E20062082100E0076E
:1003000007305F06031DCC2905302000E20062089B
:100310002100E00052302000E20021006008BF3ED2
:10032000860087012000620881000130E200620837
:100330002100E00745302000E20021006008BF3EB8
:10034000860087012000620881000130E200620817
:100350002100E00753302000E20021006008BF3E8A
:10036000860087012000620881000130E2006208F7
:100370002100E00745302000E20021006008BF3E78
:10038000860087012000620881000130E2006208D7
:100390002100E0075430CC2F05302000E200620835
:1003A0002100E00049302000E20021006008BF3E4B
:1003B000860087012000620881000130E2006208A7
:1003C0002100E00744302000E20021006008BF3E29
:1003D000860087012000620881000130E200620887
:1003E0002100E0073A302000E20021006008BF3E13
:1003F000860087012000620881000130E200620867
:100400002100E00704305F06031D092A2200590875
:10041000182A053021005F06031D112A22005A0800
:10042000182A063021005F06031D272A22005B08D8
:100430002000E200E3016208A8006308A9000A3076
:10044000AA000030AB00B7309F316A27803121000D
:10045000BE0104303E020318DB2F3E08B73E860083
:10046000870101080319DB2F3E08B73E860087018C
:1004700001082000E20021006008BF3E86008701DD
:100480002000620881000130E20062082100E007DC
:1004900001302000E20062082100BE07292A5F0324
:1004A000031DB52BE00150302000E2002100600860
:1004B000CF3E860087012000620881000130E20003
:1004C00062082100E0076F302000E2002100600890
:1004D000CF3E860087012000620881000130E200E3
:1004E00062082100E00774302000E200210060086B
:1004F000CF3E860087012000620881000130E200C3
:1005000062082100E0072E302000E2002100600890
:10051000CF3E860087012000620881000130E200A2
:1005200062082100E00720302000E200210060087E
:10053000CF3E860087012000620881000130E20082
:1005400062082100E00767302000E2002100600817
:10055000CF3E860087012000620881000130E20062
:1005600062082100E00765302000E20021006008F9
:10057000CF3E860087012000620881000130E20042
:1005800062082100E0076E302000E20021006008D0
:10059000CF3E860087012000620881000130E20022
:1005A00062082100E00765302000E20021006008B9
:1005B000CF3E860087012000620881000130E20002
:1005C00062082100E00772302000E200210060088C
:1005D000CF3E860087012000620881000130E200E2
:1005E00062082100E00761302000E200210060087D
:1005F000CF3E860087012000620881000130E200C2
:1006000062082100E00774302000E2002100600849
:10061000CF3E860087012000620881000130E200A1
:1006200062082100E00761302000E200210060083C
:10063000CF3E860087012000620881000130E20081
:1006400062082100E007E0012200571C2C2D32082F
:100650002000D700220033082000D80022003408F0
:100660002000D900BF30E2006208DA000430E30065
:100670006308DB00210060082000E4006408DC005F
:100680009631A3268031013E2000E5006508210057
:10069000E00001302000E20062082100E00757304E
:1006A0002000E20021006008BF3E86008701200094
:1006B000620881000130E20062082100E00720307A
:1006C0002000E20021006008BF3E86008701200074
:1006D000620881000130E20062082100E0072D304D
:1006E0002000E20021006008BF3E86008701200054
:1006F000620881000130E20062082100E00720303A
:100700002000E20021006008BF3E86008701200033
:10071000620881000130E20062082100E007600801
:10072000BF3E86008701810101302000E20062089F
:100730002100E0073D302000E20021006008BF3EBC
:10074000860087012000620881000130E200620813
:100750002100E007220023082000D70022002408FF
:100760002000D80022002508E42E02305F06031D79
:100770006E2DE00150302000E20021006008CF3EE5
:10078000860087012000620881000130E2006208D3
:100790002100E0076F302000E20021006008CF3E1A
:1007A000860087012000620881000130E2006208B3
:1007B0002100E00774302000E20021006008CF3EF5
:1007C000860087012000620881000130E200620893
:1007D0002100E0072E302000E20021006008CF3E1B
:1007E000860087012000620881000130E200620873
:1007F0002100E00720302000E20021006008CF3E09
:10080000860087012000620881000130E200620852
:100810002100E00763302000E20021006008CF3EA5
:10082000860087012000620881000130E200620832
:100830002100E0076F302000E20021006008CF3E79
:10084000860087012000620881000130E200620812
:100850002100E0076E302000E20021006008CF3E5A
:10086000860087012000620881000130E2006208F2
:100870002100E00773302000E20021006008CF3E35
:10088000860087012000620881000130E2006208D2
:100890002100E00775302000E20021006008CF3E13
:1008A000860087012000620881000130E2006208B2
:1008B0002100E0076D302000E20021006008CF3EFB
:1008C000860087012000620881000130E200620892
:1008D0002100E00761302000E20021006008CF3EE7
:1008E000860087012000620881000130E200620872
:1008F0002100E00774302000E20021006008CF3EB4
:10090000860087012000620881000130E200620851
:100910002100E00761302000E20021006008CF3EA6
:10092000860087012000620881000130E200620831
:100930002100E007E0012200571C2C2D2C0820008C
:10094000D70022002D082000D80022002E08200009
:10095000D900BF30E2006208DA000430E300630827
:10096000DB00210060082000E4006408DC00963110
:10097000A3268031013E2000E50065082100E0004B
:1009800001302000E20062082100E007573020001B
:10099000E20021006008BF3E860087012000620857
:1009A00081000130E20062082100E00720302000D1
:1009B000E20021006008BF3E860087012000620837
:1009C00081000130E20062082100E0072D302000A4
:1009D000E20021006008BF3E860087012000620817
:1009E00081000130E20062082100E0072030200091
:1009F000E20021006008BF3E8600870120006208F7
:100A000081000130E20062082100E0076008BF3E7B
:100A100086008701810101302000E2006208210088
:100A2000E0073D302000E20021006008BF3E860064
:100A300087012000620881000130E2006208210085
:100A4000E007220020082000D70022002108200013
:100A5000D80022002208E42E3F302000E2002100CE
:100A60006008BF3E860087012000620881000130D7
:100A7000E20062082100E0073F302000E200210090
:100A80006008BF3E860087012000620881000130B7
:100A9000E20062082100E0073F302000E200210070
:100AA0006008BF3E86008701200062088100013097
:100AB000E20062082100E0073F302000E200210050
:100AC0006008BF3E86008701200062088100013077
:100AD000E20062082100E0075730412F03305F0633
:100AE000031DDD2FE00154302000E20021006008EA
:100AF000CF3E860087012000620881000130E200BD
:100B000062082100E00765302000E2002100600853
:100B1000CF3E860087012000620881000130E2009C
:100B200062082100E0076E302000E200210060082A
:100B3000CF3E860087012000620881000130E2007C
:100B400062082100E00773302000E2002100600805
:100B5000CF3E860087012000620881000130E2005C
:100B600062082100E0072E302000E200210060082A
:100B7000CF3E860087012000620881000130E2003C
:100B800062082100E00720302000E2002100600818
:100B9000CF3E860087012000620881000130E2001C
:100BA00062082100E0076D302000E20021006008AB
:100BB000CF3E860087012000620881000130E200FC
:100BC00062082100E00769302000E200210060088F
:100BD000CF3E860087012000620881000130E200DC
:100BE00062082100E00773302000E2002100600865
:100BF000CF3E860087012000620881000130E200BC
:100C000062082100E00775302000E2002100600842
:100C1000CF3E860087012000620881000130E2009B
:100C200062082100E00772302000E2002100600825
:100C3000CF3E860087012000620881000130E2007B
:100C400062082100E00761302000E2002100600816
:100C5000CF3E860087012000620881000130E2005B
:100C600062082100E00774302000E20021006008E3
:100C7000CF3E860087012000620881000130E2003B
:100C800062082100E00761302000E20021006008D6
:100C9000CF3E860087012000620881000130E2001B
:100CA00062082100E007E0012200571C002F3508F0
:100CB0002000D700220036082000D8002200370884
:100CC0002000D900BF30E2006208DA000430E300FF
:100CD0006308DB00210060082000E4006408DC00F9
:100CE0009631A3268031013E2000E50065082100F1
:100CF000E00001302000E20062082100E0075630E9
:100D00002000E20021006008BF3E8600870120002D
:100D1000620881000130E20062082100E007203013
:100D20002000E20021006008BF3E8600870120000D
:100D3000620881000130E20062082100E0072D30E6
:100D40002000E20021006008BF3E860087012000ED
:100D5000620881000130E20062082100E0072030D3
:100D60002000E20021006008BF3E860087012000CD
:100D7000620881000130E20062082100E00760089B
:100D8000BF3E86008701810101302000E200620839
:100D90002100E0073D302000E20021006008BF3E56
:100DA000860087012000620881000130E2006208AD
:100DB0002100E007220026082000D7002200270893
:100DC0002000D800220028082000D900BF30E2000F
:100DD0006208DA000330E3006308DB0021006008EA
:100DE0002000E4006408DC009631A3268031013E37
:100DF0002000E50065082100E00001302000C72F39
:100E00003F302000E20021006008BF3E86008701DD
:100E10002000620881000130E20062082100E00742
:100E20003F302000E20021006008BF3E86008701BD
:100E30002000620881000130E20062082100E00722
:100E40003F302000E20021006008BF3E860087019D
:100E50002000620881000130E20062082100E00702
:100E60003F302000E20021006008BF3E860087017D
:100E70002000620881000130E20062082100E007E2
:100E800056302000E20021006008BF3E8600870146
:100E90002000620881000130E20062082100E007C2
:100EA00020302000E20021006008BF3E860087015C
:100EB0002000620881000130E20062082100E007A2
:100EC0002D302000E20021006008BF3E860087012F
:100ED0002000620881000130E20062082100E00782
:100EE00020302000E20021006008BF3E860087011C
:100EF0002000620881000130E20062082100E00762
:100F00006008BF3E86008701810101302000E200B9
:100F100062082100E0073D302000E2002100600867
:100F2000BF3E860087012000620881000130E20098
:100F300062082100E0073F302000E2002100600845
:100F4000BF3E860087012000620881000130E20078
:100F500062082100E0073F302000E2002100600825
:100F6000BF3E860087012000620881000130E20058
:100F700062082100E0073F302000E2002100600805
:100F8000BF3E860087012000620881000130E20038
:100F900062082100E00756302000E20021006008CE
:100FA000BF3E860087012000620881000130E20018
:100FB00062082100E0078F31E42F8D31912DFA0076
:100FC00022008C127A083F394038F9007908FB007A
:100FD0007B30F1000030F200F301F30A9E317426F9
:100FE00087317708F1000130F2007808F9007908BC
:100FF000F3009E31742622008C160800FF3FFF3F4D
:10100000FF3F0F30F1000030F2009E310926883199
:1010100022000C138C130230FB007B08F50000301B
:1010200091316D2188312030FB007B082000A30026
:10103000A3152308FB007B08F5000030943103243E
:1010400088310E30FB007B08F5000030943103241A
:1010500088310630FB007B08F50000309431032412
:101060008831F501F50A00309431032488315C3071
:10107000FB007B08F80000309031B62008008B138D
:101080002300151515132000E201E0307105E00082
:10109000FF307205E10071081F39F5007508E300A3
:1010A000740862020318F82864002000E40120306C
:1010B000640203187F286400200064086007F500BC
:1010C00061080318610AF60075082300910076088C
:1010D0009200151415186A2820006435203E8600F9
:1010E000870123001308C03F1408C13F0130F500F9
:1010F00075082000E40720306402031C5B282300ED
:1011000015162000610823009200200060082300CB
:10111000910055309600AA309600951495188E28A7
:10112000000000002030200063020318BB28640088
:101130007408200062020318BB2862087307F500D8
:1011400075088600013087000108F600F701633555
:10115000203E860087017608C03F7708C13F0130F6
:10116000F5007508E2070130F5007508E307203047
:101170006302031C9728E301E40120306402031892
:10118000F32864086007F50061080318610AF60097
:101190007508230091007608920020006435203EF7
:1011A00086008701403F23009300413F94001F3099
:1011B00020006406031DDF2823009512E128230088
:1011C000951655309600AA30960095149518E62885
:1011D000000000000130F50075082000E407203011
:1011E0006402031CC1282030E0070030E13D502894
:1011F0008B1723001511080020002008A6002108E5
:10120000A7002208A8000310270D280DA90029080F
:10121000FB002308A6002408A7002508A800031047
:10122000270D280DA9002908FA007B080319242995
:101230007A087B0203182B297B03FF3A7A07A60062
:1012400019302602031C2B292308A0002408A10022
:101250002508A20008007A08031908007B087A0212
:1012600003183A297A03FF3A7B07A60019302602B1
:10127000031808000630A6002608F900A21BF9177B
:10128000A51B7917A117FF30A005FF30A10500307D
:10129000A205A417FF30A305FF30A4050030A50563
:1012A0007A087B02031876290130A335A40DA50D19
:1012B000890B55290130FA027A087B060319712936
:1012C0000130F902790807390319712954290130CD
:1012D000A236A10CA00C890B68290130A6002608B3
:1012E000FB077B087A0603199B2967297B087A028A
:1012F00003189B290130A035A10DA20D890B7B2974
:101300000130FB027A087B06031997290130F902A4
:1013100079080739031997297A290130A536A40CD1
:10132000A30C890B8E290130A6002608FA077B083A
:101330007A06031D8D29F91FAD29FF30A006FF3065
:10134000A106FF30A2060130A007003003180130CB
:10135000A107003003180130A207791FBF29FF3011
:10136000A306FF30A406FF30A5060130A307003016
:1013700003180130A407003003180130A507F90154
:101380002008A3072108A43D2208A53DA51FDA29AE
:10139000FF30A306FF30A406FF30A5060130A307E7
:1013A000003003180130A407003003180130A507EE
:1013B000F901F90A2308F1002408F2002508F300D6
:1013C0007B08A6002608F4007908A7002708F50086
:1013D0009531152571082000A0007208A10073083E
:1013E000A2000800EF30F9000030FA00FB01FB0A10
:1013F0003B309F31252789310B3021006F02031CC0
:10140000080064000B302000E6006608A3003F30AF
:1014100090310020893122004303031D7A2A4008BD
:10142000031DA02B3F08031DA02B03304206031908
:101430005719222A41082000E60066082200DB0036
:1014400057153C2A22004203031957182F2A410836
:101450002000E60066082200D90057143C2A02301A
:10146000220042060319D7184A2A41082000E60044
:1014700066082200DA00D71441082000E60066085A
:101480002100E400220042082000E6006608210056
:10149000E5006C1421006C1CA02B6C109D312625DE
:1014A0008931210065082000E6006608A7002100B8
:1014B0006408903137208931033022004206031D31
:1014C000632A06306F2A22004203031D692A043072
:1014D0006F2A023022004206031D722A0530803135
:1014E0004B208931D030F1000730F2009E310926BF
:1014F00089319C2B22004308031DA02B4008031DAB
:10150000A02B58083F06031DA02B44082000E6002E
:1015100066082100E600220045082000E600660873
:101520002100E700220046082000E60066082100AE
:10153000E800220047082000E60066082100E900D4
:10154000220048082000E60066082100EA00220088
:1015500049082000E60066082100EB002200420353
:101560000319571CD02A59084106031DD02A21000F
:1015700066082200AF00210067082200B0002100A9
:1015800068082200B100210069082200A3002100A0
:101590006A082200A40021006B082200A500152B78
:1015A0000230220042060319571CF32A5A0841064A
:1015B000031DF32A210066082200A9002100670804
:1015C0002200AA00210068082200AB00210069085F
:1015D0002200A00021006A082200A10021006B085F
:1015E0002200A200152B0330220042060319571DCA
:1015F000232B5B084106031D232B210066082200D4
:10160000B500210067082200B6002100680822000A
:10161000B700210069082200A60021006A08220004
:10162000A70021006B082200A80041082000E60066
:1016300066082100E400220042082000E600660857
:101640002100E500EC142100EC1CA02BEC10003074
:10165000E1006630E2004330E3002200571D3B2BDF
:1016600035082100E100220036082100E2002200B6
:1016700037082100E3002200571C642B2F082000AC
:10168000A000220030082000A10022003108200024
:10169000A200210061082000A300210062082000B0
:1016A000A400210063082000A50097314C27893150
:1016B000200020082200B200200021082200B300F0
:1016C000200022082200B400D71C8C2B29082000FF
:1016D000A00022002A082000A10022002B082000E0
:1016E000A200210061082000A30021006208200060
:1016F000A400210063082000A50097314C27893100
:10170000200020082200AC00200021082200AD00AB
:10171000200022082200AE00210065082000E6001B
:101720006608A7002100640890310E20893122004C
:101730003C083D04031DA02B003080314B20893133
:10174000EF30F9000030FA00FB01FB0A3B309F311B
:101750002527893190318B208931FC292000C30055
:101760002F30B7003708BE002E08B8002D08B7008C
:10177000AD0A0319AE0A370884003808850000084E
:10178000B9003908C800480803198B2D25304806D0
:101790000319D72B4808B70043088600013087009B
:1017A000370881000130B7003708C307B42BC401E4
:1017B000C501BD012D0884002E08850000089D315B
:1017C00018258B31031C152C2000C401C5010A30DB
:1017D000F1000030F20020004508F4004408F30056
:1017E0009E3122268B3172082000C5007108C4008A
:1017F0002D0884002E0885000008D03EB700FF3079
:1018000003180030B8003708C4073808C53D013058
:10181000AD070030AE3D2D0884002E08850000087D
:101820009D3118258B310318E72B20002D088400EB
:101830002E08850012002E3A031D532C0130AD07EF
:101840000030AE3DC601C7012D0884002E0885007A
:1018500000089D3118258B31031C5E2C20002D08BB
:1018600084002E0885000008B700B8014708F20080
:101870004608F1000A30F3000030F4009E312226C1
:101880008B31200037087107B9003808723DBA0063
:101890003908D03EC600FF303A3DC7000130AD07E1
:1018A0000030AE3D242C2000C601C7015E2C3D1641
:1018B0005E2CC030B7003708BD04762C20002E08FF
:1018C000B8002D08B700AD0A0319AE0A3708840026
:1018D000380885000008C800003A03198B2D6C3ABF
:1018E0000319572C193A0319592CB42B3D1E852C7A
:1018F0003E0886008701403FBF00413FC000423F95
:10190000C100433FC2000430932C3E08860087018B
:10191000403FB700413FB8003708BF003808C0005B
:10192000C101C2010230B7003708BE0746084704AC
:10193000031DA42C4208410440043F04031DA42CB1
:101940000130C6070030C73DC801C80A0A30480642
:101950000319D72C4808B700B801B735B80DB7350B
:10196000B80D003037078400B930383D8500003F9E
:10197000B900013FBA00023FBB00033FBC003C0876
:101980004202031DCD2C3B084102031DCD2C3A0819
:101990004002031DCD2C39083F02031CD72C013017
:1019A000B7003708C8070A304806031DAA2C4808A4
:1019B000B700B801B71BB8033808803AB900470828
:1019C000803A3902031DE62C460837020318EE2C34
:1019D00020004608B7003708C800062D2000480838
:1019E000B700B801B71BB8034708803AB9003808F8
:1019F000803A3902031DFE2C370846020318062DD3
:101A000020004808C600C701C61BC70320004808BD
:101A1000B700B801B71BB8033808803AB9004508C9
:101A2000803A3902031D162D440837020318232D6E
:101A300020004808B700B801B71BB8033708C40234
:101A40003808C53B262D2000C401C50144084504C3
:101A50000319802D2030B70043088600013087002D
:101A6000370881000130B7003708C307FF30C407CB
:101A7000FF30C53D262D0030A8000030A700003003
:101A8000A6000A30A5004708850046088400843572
:101A9000850D8435850D00308407B930853D003FC4
:101AA000F100013FF200023FF300033FF40042085F
:101AB000F8004108F7004008F6003F08F5009331B0
:101AC000B0238B3174082000AC007308AB0072089F
:101AD000AA007108A900923187228B3120002508C5
:101AE000303EB7003708C8004808B70043088600F2
:101AF00001308700370881000130B7003708C3077D
:101B0000FF30C607FF30C73D460A031D3B2D470A7D
:101B10000319B42B3B2D4308860001308700810157
:101B200008005F08031DE42F220032082000A000F7
:101B3000220033082000A100220034082000A20067
:101B400022002C08F1002D08F2002E08F3009C3131
:101B5000F0248D3171082000A3007208A4007308DE
:101B6000A5008831FC208D31200020082100BB0019
:101B7000200021082100BC00200022082100BD0017
:101B8000E00153302000E20021006008CF3E8600D3
:101B900087012000620881000130E2006208210014
:101BA000E00774302000E20021006008CF3E86008C
:101BB00087012000620881000130E20062082100F4
:101BC000E00761302000E20021006008CF3E86007F
:101BD00087012000620881000130E20062082100D4
:101BE000E00769302000E20021006008CF3E860057
:101BF00087012000620881000130E20062082100B4
:101C0000E00720302000E20021006008CF3E86007F
:101C100087012000620881000130E2006208210093
:101C2000E0070030F1000030F2000030F3003B0824
:101C3000F4003C08F5003D08F60092310C228D318D
:101C40000318B32E67302000E20021006008CF3E69
:101C5000860087012000620881000130E2006208EE
:101C60002100E00765302000E20021006008CF3E3F
:101C7000860087012000620881000130E2006208CE
:101C80002100E0076E302000E20021006008CF3E16
:101C9000860087012000620881000130E2006208AE
:101CA0002100E00765302000E20021006008CF3EFF
:101CB000860087012000620881000130E20062088E
:101CC0002100E00772302000E20021006008CF3ED2
:101CD000860087012000620881000130E20062086E
:101CE0002100E00761302000E20021006008CF3EC3
:101CF000860087012000620881000130E20062084E
:101D00002100E0076E302000E20021006008CF3E95
:101D1000860087012000620881000130E20062082D
:101D20002100E00764302000E20021006008CF3E7F
:101D3000860087012000620881000130E20062080D
:101D40002100E0076F302000E20021006008CF3E54
:101D5000860087012000620881000130E2006208ED
:101D60002100E007632F63302000E20021006008BB
:101D7000CF3E860087012000620881000130E2002A
:101D800062082100E0076F302000E20021006008B7
:101D9000CF3E860087012000620881000130E2000A
:101DA00062082100E0076E302000E2002100600898
:101DB000CF3E860087012000620881000130E200EA
:101DC00062082100E00773302000E2002100600873
:101DD000CF3E860087012000620881000130E200CA
:101DE00062082100E00775302000E2002100600851
:101DF000CF3E860087012000620881000130E200AA
:101E000062082100E0076D302000E2002100600838
:101E1000CF3E860087012000620881000130E20089
:101E200062082100E00761302000E2002100600824
:101E3000CF3E860087012000620881000130E20069
:101E400062082100E0076E302000E20021006008F7
:101E5000CF3E860087012000620881000130E20049
:101E600062082100E00764302000E20021006008E1
:101E7000CF3E860087012000620881000130E20029
:101E800062082100E0076F302000E20021006008B6
:101E9000CF3E860087012000620881000130E20009
:101EA00062082100E0073B08F1003C08F2003D0811
:101EB000F3009C31F0248D3171082100BB007208C1
:101EC000BC007308BD00E0013B082000D7002100E2
:101ED0003C082000D80021003D082000D900BF3078
:101EE000E2006208DA000430E3006308DB0021004E
:101EF00060082000E4006408DC009631A3268D31E0
:101F0000013E2000E50065082100E0005730200078
:101F1000E20021006008BF3E8600870120006208C1
:101F200081000130E20062082100E007203020003B
:101F3000E20021006008BF3E8600870120006208A1
:101F400081000130E20062082100E0072200D71C76
:101F5000BA2F2008F1002108F2002208F300003017
:101F6000F4002030F5004030F60092310C228D3123
:101F7000031CE22F2200571CCE2F2308F100240857
:101F8000F2002508F3000030F4002030F500403066
:101F9000F60092310C228D31031CE22F2200571DD6
:101FA000E42F2608F1002708F2002808F30000308B
:101FB000F4002030F5004030F60092310C228D31D3
:101FC0000318E42F2100CE012000A001CF30E20051
:101FD0006208A1001030E3006308A20000309231D3
:101FE000CA228D312000A001BF30E2006208A100AA
:101FF0001030E3006308A20001309231CA220800C9
:102000002000A5002508F9000130FA002308A400EB
:102010002408FB003F309F31252708002000A9003D
:102020002908A80028082200CA0020002708A800C4
:1020300028082200CB0058082000A8002808220009
:10204000CC00CD0180302000A80028082200CE005E
:10205000CF01D001D101D201D301D4010B30200036
:10206000A8002808A3004A3093315E23080020000E
:10207000A9002908A80028082200CA002000270873
:10208000A80028082200CB0058082000A800280833
:102090002200CC00CD0181302000A80028082200B9
:1020A000CE00CF01D001D101D201D301D4010B3038
:1020B0002000A8002808A3004A3093315E230800BE
:1020C0008E30F9007908FA00FF302000230503194B
:1020D000762801302000A336A20CA10CA00C890B9D
:1020E0006A280130F9007908FA0764282008F1000D
:1020F0002108F2002208F3007A08F9007908F400B8
:10210000F5019531152571082000A0007208A10085
:102110007308A20008007C30F9000030FA00FB01CF
:10212000FB0A35309F3125279031AA2834309D3164
:102130009D2508003A309D319D25903134309D31E8
:102140009D2508003B309D319D25903134309D31D7
:102150009D2508007C08013A03199628103A0319B6
:102160009A28073A0319A228B52808002000A000E1
:10217000A2010930220203180800220820073F3973
:102180004038F9007908A1002108F9007908F50024
:102190000030943103249031200022087807F900A0
:1021A00079088600013087000108FA007A08F500F6
:1021B00001309431032490310130F9007908200076
:1021C000A207B9287108720403190929F601F60A51
:1021D000F21BF4280130F135F20D890BEB280130A8
:1021E000F5007508F607E82872087402031DFA283E
:1021F00071087302031C00297108F3027208F43B92
:102200000130F236F10C890B01290130F602031D71
:10221000F4287408F2007308F100080047344634CB
:102220004E340B34D33491340B340834043400343A
:10223000003406340034213463349134CA34833496
:10224000023402343B34343407343F340834163417
:102250006C3403344034913487346B34FB3456345B
:102260001634E9342A3400341F34413400345934EC
:102270007F343F3481343534093490318B209131AF
:1022800001302200B8070030B93D03303902E9308F
:1022900003193802031C5A29B801B90136309D319F
:1022A0009D25913133309D319D2591313A309D31BD
:1022B0009D25913122003C083D040319080001309E
:1022C000BC020030BD3B3C083D04031D080021005A
:1022D000EE01003080314B200800F60022000C1285
:1022E0007608031D75290C1379297603031D7929B6
:1022F0000C178C136430F1000030F2009D3144253E
:10230000913122000C166430F1000030F2009D3152
:102310004425913175080F399E315826913164302A
:10232000F1000030F2009D314425913122000C1261
:102330006430F1000030F2009D3144250800F601C0
:10234000F701710872040319CE29F801F80AF21B8B
:10235000B3290130F135F20D890BAA290130F500BE
:102360007508F807A7290130F635F70D890BB42950
:1023700072087402031DBE2971087302031CC5296B
:102380007108F3027208F43B76140130F236F10C56
:10239000890BC6290130F802031DB3297708F20022
:1023A0007608F10008002000A200FF292700940110
:1023B0009501080030309D319D2591310530F100A7
:1023C0000030F2009E3109269131A0302000A0009B
:1023D0002008F7002E30A1002108F80000308731D6
:1023E000DF27913165302000A0002008F700083079
:1023F000A1002108F8003E308731DF2708002000C7
:102400002208003A0319D629013A03190B2A033A84
:102410000319DA290B2A0800F31F222A7109F70091
:102420007209F8007309F900F70A0319F80A031989
:10243000F90A00307707F1000030783DF200803073
:10244000793DF300F61F382A7409F7007509F80082
:102450007609F900F70A0319F80A0319F90A003096
:102460007707F4000030783DF5008030793DF600C4
:102470008030F3068030F60676087302031D0800EC
:1024800075087202031D08007408710208000F30FD
:10249000F500750821008C0422000C120C138C1717
:1024A0006430F1000030F2009D3144259231220069
:1024B0000C16F60120000C1C5F2AF601F60A6430A7
:1024C000F1000030F2009D314425923122000C12BF
:1024D0006430F1000030F2009D3144259231220039
:1024E0000C166430F1000030F2009D314425923129
:1024F00022000C126430F1000030F2009D314425BE
:10250000F030F500750821008C05760808002000E1
:1025100028082704260425040319C12AFB01FB0A05
:10252000A81B9E2A0130A535A60DA70DA80D890B65
:10253000932A0130FA007A08FB07902A28082C0217
:10254000031DAC2A27082B02031DAC2A26082A02E9
:10255000031DAC2A25082902031CB62A2508A90256
:102560002608AA3B2708AB3B2808AC3B0130A8361D
:10257000A70CA60CA50C890BB72A0130FB02031D82
:102580009E2A2C08A8002B08A7002A08A6002908C4
:10259000A50008002000A5002008A3002308F800DB
:1025A00025089D31C62592312000A401220824026D
:1025B0000318080024082107A300230886008701C8
:1025C00001089C31F8249231923147229231003A2D
:1025D0000319EC2A0000E42A01302000A30023089C
:1025E000A00710302006031DFB2AA0010130A30024
:1025F0002308A507022B203020002006031D0A2BEC
:10260000A001A5012008A3002308F80025089D319A
:10261000C625923101302000A3002308A407D62A42
:102620002000E801033068020318522B64002000E8
:1026300068089F3147279331200068089D31DB25CA
:102640009331200068089D31F225933120006808FD
:102650009D3166259331200068089E31E92693312B
:10266000200068089131D3219331200068089D3102
:1026700001259331200068089D318A25933120007F
:102680006808943159249331200068089D31B125A0
:10269000933101302000E7006708E8070330680243
:1026A000031C162B8B1764009E313D2693319E31FF
:1026B000912693319C31DE249331532B2000A600C8
:1026C00064007C30F9000030FA00FB01FB0A353071
:1026D0009F31252793311F307C052000A4000D3049
:1026E00024060319792B1F307C05A4002403031D45
:1026F000602B36309D319D259331EF30F90000304D
:10270000FA00FB01FB0A3B309F31252793316F30E4
:10271000F9000030FA00FB01FB0A3A309F3125270F
:1027200093313B309D319D2593316F30F90000305E
:10273000FA00FB01FB0A3A309F3125279331200034
:102740002608A4002408F7002308A5002508F8009F
:102750003F308731DF27933135309D319D2508008B
:1027600000302000A3000030A2000030A1000030A3
:10277000A00074087304720471040319FA2BA401F5
:10278000A40AF41BCF2B0130F135F20DF30DF40D3B
:10279000890BC42B0130F9007908A407C12B013043
:1027A000A035A10DA20DA30D890BD02B74087802C2
:1027B000031DE42B73087702031DE42B72087602D5
:1027C000031DE42B71087502031CEF2B7108F50241
:1027D0007208F63B7308F73B7408F83B201401308D
:1027E000F436F30CF20CF10C890BF02B0130A4023F
:1027F000031DCF2B2308F4002208F3002108F20068
:102800002008F1000800F70022000C127708031DD1
:102810000B2C0C130F2C7703031D0F2C0C178C1390
:102820006430F1000030F2009D31442594312200E3
:102830000C166430F1000030F2009D3144259431D3
:102840007508F6000430F636890B232C76080F390C
:102850009E31582694316430F1000030F2009D31F1
:102860004425943122000C126430F1000030F20053
:102870009D314425943122000C166430F100003063
:10288000F2009D314425943175080F399E31582648
:1028900094316430F1000030F2009D3144259431D0
:1028A00022000C126430F1000030F2009D3144250A
:1028B00008002000E600A62C2100EC012200B8014F
:1028C000B901BC01BD010030B2000030B3000030DE
:1028D000B4000030AC000030AD000030AE0000307D
:1028E000AF000030B0000030B1000030A90000306F
:1028F000AA000030AB000030B5000030B600003058
:10290000B7000030A3000030A4000030A500003064
:10291000A0000030A1000030A2000030A60000306E
:10292000A7000030A8002100EE01080036309D31DC
:102930009D25943133309D319D25943134309D3126
:102940009D259431003080314B200800200066081E
:10295000003A0319B22C013A03195C2C033A03190B
:10296000962CB22C08002000A7002108A500200802
:10297000A4002308F2002208F1002508F40024082E
:10298000F30091319F21943172082000A500710855
:10299000A4000130F9007908A70724082504031DC5
:1029A000B92C27088600870181010130A70223087E
:1029B000F2002208F1002108F4002008F300903111
:1029C000E22094317108F90079082000A60023085C
:1029D000F2002208F1002108F4002008F3009131F0
:1029E0009F21943172082000A1007108A0000A30D4
:1029F0002602031CFF2C0730F9007908A6073030A7
:102A0000F9007908A6072608F9002708860087013B
:102A1000790881000130A70220082104031DD72C6A
:102A20000130F9007908A7070800740803191D2D63
:102A3000730872047104031D2E2D0030F100003064
:102A4000F2000030F30008000130F6007608F407C9
:102A50000130F336F20CF10C890B292DFE30730591
:102A60000319472D242D0130F6007608F4070130B4
:102A7000F107003003180130F2070030031801306D
:102A8000F3070130F336F20CF10C890B422DFF30C5
:102A900073050319582D332D02307402031C5A2D6F
:102AA0000130F4020130F135F20DF30D890B532D95
:102AB000F21F4C2D7418622DFF30F1057F30F205A6
:102AC000FF30F3050310F40C7408F600F701F80169
:102AD0001030F635F70DF80D890B692D7608F104E5
:102AE0007708F2047808F304750803190800F3174F
:102AF000080020003008B4003108B5003208B600E4
:102B00000310350D360DB7003708BD003D08031D15
:102B1000922D0030B3000030B2000030B100003020
:102B2000B00008003008B4003108B5003208B60023
:102B30001730B636B50CB40C890B992D3408B70094
:102B40003708B800B117FF30B005FF30B1050030CD
:102B5000B2053008B9003108BA003208BB00BC0128
:102B60008E30BD02BD1FD02D3D08803A8F3E031828
:102B7000C22D0030B3000030B2000030B100003090
:102B8000B00008000130BC36BB0CBA0CB90C890B84
:102B9000C32D0130B4003408BD070319E92DC22D3F
:102BA00018303D02031CE62D0030B3000030B200A7
:102BB0000030B1000030B00008000130B935BA0D66
:102BC000BB0DBC0D890BDE2D0130BD023D08031D80
:102BD000DD2D38080319F72DB909BA09BB09BC095D
:102BE000B90A0319BA0A0319BB0A0319BC0A3C083B
:102BF000B3003B08B2003A08B1003908B000080041
:102C0000CF302000CD004D08D6004908F1004A0819
:102C1000F2004B08F3000030F4000030F500003003
:102C2000F60092310C2296310318332E2D302000FD
:102C3000CD0056088600013087004D088100013024
:102C4000CD004D08D6074908F1004A08F2004B08AC
:102C5000F3009C31F024963171082000C9007208FD
:102C6000CA007308CB0020004908B0004A08B10030
:102C70004B08B20095317925963120003308D500F4
:102C80003208D4003108D3003008D2005508A30020
:102C90005408A2005308A1005208A00090316020FF
:102CA000963120002008AA002108AB002208AC00C1
:102CB0004908AD004A08AE004B08AF009E31CB2654
:102CC000963120002A08C9002B08CA002C08CB0026
:102CD0004908A3004A08A4004B08A5002430A0001E
:102CE0007430A1004930A20097314C279631200062
:102CF0002008B0002108B1002208B20095317925E2
:102D0000963120003308D1003208D0003108CF00BE
:102D10003008CE002830AD00B930AE005508B20002
:102D20005408B1005308B0005208AF005108B60073
:102D30005008B5004F08B4004E08B30056088B3158
:102D4000AE23CF30080020005708C9005808CA0039
:102D50005908CB00B030DD005D08CC00963100266C
:102D600096312000DE005E082100B400B301B601F8
:102D70001030360203181C2F640021003608340777
:102D80002000DD005D088600013087002E3001063E
:102D9000031DD32E2100B301B30A36082000DD0045
:102DA0005D082100B200210033080319F42E320817
:102DB0002000DD00DE01DD09DE09DD0A0319DE0A7F
:102DC0002100360820005D07DF005E0803185E0A58
:102DD000E0006008803AE10080306102031DF22EBD
:102DE00003305F0203181C2F21003608340720002F
:102DF000DD005D08860001308700010803191C2FE3
:102E00002100360834072000DD005D08860001300F
:102E100087000108DE0021003608A03E86008701F9
:102E200020005E0881000130DD005D082100B6074A
:102E300010303602031CBC2E20005B082100360235
:102E4000031C292F20005B08FF3EDD005D082100E8
:102E5000B600B501360835020318482F3508A03EE4
:102E60008600870101082000DD005C085A07DE00AB
:102E70002100350820005E07DF005F08860087011B
:102E80005D0881000130DD005D082100B5072A2FB3
:102E9000350820005C07080020002008A600210853
:102EA000A7002208A8000310270D280DA900290853
:102EB000AA002A08031D632F0030A0000030A100E3
:102EC0000030A20008002308A6002408A700250857
:102ED000A8000310270D280DA9002908AF002F080E
:102EE000031D792F0030A0000030A1000030A200A7
:102EF00008002F087B3EA6002608AA072008A60087
:102F00002108A7002208A8001030A836A70CA60C9C
:102F1000890B852F2608A9002908AF002308A600E1
:102F20002408A7002508A8001030A836A70CA60C76
:102F3000890B952F2608A9002908AF068030A60026
:102F40002608AF05A117A417FF30A305FF30A4057D
:102F50000030A5050030AB000030AC000030AD0003
:102F60000730A6002608AE00201CBC2F2308AB07A4
:102F70002408AC3D2508AD3D0130A236A10CA00CC3
:102F8000890BBD2F0130A335A40DA50D890BC32FCF
:102F90000130AE02031DB42F0930A6002608AE0092
:102FA000201CD82F2308AB072408AC3D2508AD3DD5
:102FB0000130A236A10CA00C890BD92F0130AD36FF
:102FC000AC0CAB0C890BDF2F0130AE02031DD02FF0
:102FD0002B08F1002C08F2002D08F3002A08A600A7
:102FE0002608F4002F08A7002708F50095311525BD
:102FF00071082000A0007208A1007308A200080058
:1039A000FF3FFF3FFF3FFF3FFF3FFF3FFF3FFF3F27
:1039B00022003E14633020009500080020000D18FE
:1039C00008008931F2210800FE0012001E00FE0BE3
:1039D000E52C0034640080010131890BEB2C0034AC
:1039E000730872047104031908008030F30608009C
:1039F000F9007908F8007808F500013094310324C3
:103A00000800F100062D2300950108007108003A16
:103A10000319032D0B2D08005C3022005506031DF1
:103A2000152DC5305606031908009D31782508006C
:103A3000F200F1013A3072020318242D3030720284
:103A4000031C242DF101F10A710C08002030F10053
:103A50003830F2005530F8007808F3000730F900EC
:103A60007908F40088313F2008002030F100383018
:103A7000F2005530F8007808F3000730F9007908B3
:103A8000F4009F31B2270800F301F40172087402B8
:103A9000031D4C2D710873020318080064000032E6
:103AA0000130F3070030F43D462D0E341F3411343D
:103AB00011341134113411341F34003403340F34F1
:103AC0001E34273450348134CB34C234F100722D8B
:103AD0002000EA01ED01EE012100ED012000EB01E3
:103AE000EC0108007108013A0319682D772D0800D0
:103AF0005C30FA007A082200D500C530FA007A0856
:103B0000D600D701D801D901DA01DB019D31262584
:103B1000010008002000A400902D88310120080039
:103B200020002408003A03199C2D013A03199C2D0A
:103B3000033A03198D2D9C2D0800F80022008C12E9
:103B400078083F398038F7007708F9007930F100BC
:103B50000030F200F301F30A9E31742622008C1625
:103B60000800FB00BD2D01302000980008009D31A9
:103B700035259D319D310C2508007B08003A03193D
:103B8000B32D013A0319B72DC52D0800FA007808A6
:103B9000F9007908FB007A03031DD22D4030F900AB
:103BA0007908FB077B088038F9007908F5000030B8
:103BB000943103240800F200EC2D0730F100710865
:103BC00021008D040E16F830F100710823008D05D8
:103BD000073024008D0008007208003A0319DD2D1B
:103BE000F12D0800F200032E21008C010730F100B6
:103BF00071088D051030F10071088E0523008C01CD
:103C00008D018E0108007208003A0319F42D082E68
:103C10000800F501F60172087602031D112E7108E5
:103C200075020318080064000330F4009730F300B5
:103C3000F30B182EF40B182E00320130F50700306C
:103C4000F63D0B2EF501F601711C2A2E7308F507BF
:103C50007408F63D0130F335F40D890B2B2E01303D
:103C6000F236F10C890B302E71087204031D242EDC
:103C70007608F2007508F100080022003E1C472E6D
:103C80003E1091313D219E319F31D9279E31200038
:103C90006B1C4E2E6B109F3107279E3121006D1833
:103CA0006D1020006C1C08006C109E31AE260800C0
:103CB000F200F3017218F315F21873157219F31468
:103CC000F21973140F30F1007108F3057308F10055
:103CD000710822008C04F030F1007108F3047308BD
:103CE000F10071088C050800F601730876020318CC
:103CF0000800200091117608F400F501740871079E
:103D000086007508723D870001082400910020009C
:103D100091198C2E0000872E0130F4007408F607EC
:103D2000752E2000EE010D1D6E146E080139F10094
:103D30006D08013971060319A42E6D106E1CA12E99
:103D40006D142000E9016A146D1CA82EEA14080005
:103D50002200BA01BB012000EA100800200016086A
:103D60001706E60066082200D800D901DA01DB0157
:103D7000D7019D3126259E31073080314B209E3161
:103D8000D030F1000730F2009E3109269E3100301C
:103D900080314B20080020002C082B042A04031932
:103DA000D32E8030AC062D08A0002E08A1002F08CD
:103DB000A2002A08A3002B08A4002C08A500883123
:103DC000FC2020002008AA002108AB002208AC003B
:103DD0000800F200FB2E21000E16D730F10071080A
:103DE0008E05240095129101013095009601403016
:103DF0009400951608007208003A0319EB2E013A58
:103E00000319062F033A0319062F062F0800033063
:103E100021006E06031D0E2FEE01142F013020002D
:103E2000E60066082100EE076E0803191D2FF43026
:103E30002200BC000130BD00202F2200BC01BD01CA
:103E400021006E0880314B2008002000A1002200D4
:103E50008C12200021083F39C038A0002008A200A1
:103E60002230F1000030F200F301F30A9E31742693
:103E70009F317908F1007A08F2007B082000A00049
:103E80002008F3009F318E2722008C160800F200D4
:103E9000612F063021009500713099001330970092
:103EA0006330200095008B16FB30F10071088B0504
:103EB0009101920121009101920108002200BE01AE
:103EC00008007208003A0319492F013A03195E2FBE
:103ED000692F08002000AD002D08FA007A08AC0018
:103EE000A91F822F2D30FA002D08860087017A083D
:103EF00081000130FA007A08AD07A809A909A80ACB
:103F00000319A90A2908A1002808A0002B08A3006A
:103F10002A08A2002D089431B3240800F801730880
:103F200078020318080020009111FF30240091004E
:103F3000200091199D2F0000982F7808F400F501BA
:103F400074087107F6007508723DF7007608860060
:103F5000770887002400110881000130F4007408FC
:103F6000F8078F2F23001513F70174087702031841
:103F70000800640077087107F50072080318720AD8
:103F8000F6007508230091007608920015141518A4
:103F9000C72F1308F50077087307F6007608860028
:103FA00001308700750881000130F5007508F707BA
:103FB000B52F20006A1CEC2F0130F1007108E907D1
:103FC00006306902031CEC2F6A10E9016D1CEA2F10
:103FD0006B14EC2F21006D142000EA1C0800013046
:103FE0002200BA070030BB3D00303B02C930031944
:103FF0003A02031C0800BA01BB0120006C1408003F
:107040005C34C5340034003400340034003400347F
:107050000034003400340034003400340034003490
:107060000034003400340034003400340034003480
:107070000034003400340034003400340034003470
:1072000001340034003400340A34003400340034D3
:107210006434003400340034E8340334003400347F
:107220001034273400340034A03486340134003460
:10723000403442340F34003480349634983400346F
:107240000034E134F53405340034CA349A343B3424
:1072500025346C3475342E34253436342E3436349B
:107260006C3475340034FF3FFF3FFF3FFF3FFF3F6B
:10727000FF3FFF3FFF3FFF3FFF3FFF3FFF3FFF3F1E
:020000040001F9
:04000E001CEFFFD70D
:080000000E000B0009000700CF
:00000001FF
