:020000040000FA
:1000000080311428FF3F0800803120007F08F00075
:100010000B1D0D280B118A31CC2227001619161141
:1000200070082000FF00090080311628FC016930AB
:1000300084000030850007308A31DE228031A03014
:100040008400003085002D308A31DE228031EC3092
:1000500084008A308500CD3086000030870008306B
:100060008A31D8228031753084008E30850020306E
:100070008600013087002F308A31D8222000873156
:100080008C2FCD2922000C142000DC01DD01DE01C3
:10009000833021009E0005309D002000E901E90A1F
:1000A000D9290A305E06031DC7280A30F100003046
:1000B000F2005D08F4005C08F3008E31D426803134
:1000C00072082100A7007108A60000302000B400CB
:1000D0008030B5004430B6001230A4008330A50053
:1000E0003F30A60021002708FA002608F9008B31CE
:1000F000A623803179082000A7007A08A8007B0891
:10010000A90084319424803120002408B7002508F8
:10011000B8002608B9008531482580312000340810
:10012000D5003508D6003608D7000030A40030309E
:10013000A5004130A6005508A7005608A80057089A
:10014000A900843194248031200024082100A000DB
:10015000200025082100A100200026082100A2007F
:1001600000302000DB000030DA000030D900003021
:10017000D800DE0122000C10833021009E000930DF
:100180009D0002302000C7004708E900D92921005E
:100190001B082000DC0721001C082000DD3DC829C9
:1001A00014305E06031D8D290030B4000030B50008
:1001B0000030B6003830A4008630A5003F30A600DD
:1001C0005B08A3005A08A2005908A1005808A00023
:1001D0008E314A26803120002008A7002108A8007F
:1001E0002208A90084319424803120002408B7001B
:1001F0002508B8002608B90085314825803120003F
:1002000034082100A300200035082100A4002000AC
:1002100036082100A50020302000B4008830B50049
:100220004430B600210023082000B7002100240834
:100230002000B800210025082000B900853148259C
:100240008031200034082100A3002000350821005F
:10025000A400200036082100A50000302000A400E2
:100260001030A5004530A600210023082000A7007B
:10027000210024082000A800210025082000A90052
:10028000843194248031200024082100A300200020
:1002900025082100A400200026082100A500003028
:1002A0002000B400A030B5004130B6002100230882
:1002B0002000B700210024082000B80021002508F4
:1002C0002000B90085314825803120003408210004
:1002D000A300200035082100A400200036082100DA
:1002E000A50023082000B400210024082000B50048
:1002F000210025082000B6008231E82220003408C1
:100300002100A300200035082100A40020003608A9
:100310002100A5002000E901080021001B082000A1
:10032000C700C80121001C082000C900CA014908F3
:10033000CA00C90147084904F10048084A04F2000C
:1003400021001B082000CC00CD0121001C0820004A
:10035000CE00CF014E08CF00CE014C084E04F30072
:100360004D084F04F4008C31322480317108200094
:10037000D1007208D2000030D21BFF30D300D4006D
:100380005108D8075208D93D5308DA3D5408DB3DDF
:100390000130C7004708DE07D92920006908003A64
:1003A00003194228013A03195128033A0319D028A6
:1003B000D9290630C700C70BDB29000021009D1496
:1003C00021009D1CE5296400E02902302000690617
:1003D000031DCD290830F1000030F2008B31FF23DE
:1003E0008031CD2920002008A6002108A70022087E
:1003F000A8000310270D280DA9002908FB002308D9
:10040000A6002408A7002508A8000310270D280D22
:10041000A9002908FA007B0803191A2A7A087B0226
:100420000318212A7B03FF3A7A07A6001930260217
:10043000031C212A2308A0002408A1002508A200EB
:1004400008007A08031908007B087A020318302A8A
:100450007A03FF3A7B07A60019302602031808002A
:100460000630A6002608F900A21BF917A51B79176C
:10047000A117FF30A005FF30A1050030A205A41789
:10048000FF30A305FF30A4050030A5057A087B02E4
:1004900003186C2A0130A335A40DA50D890B4B2A36
:1004A0000130FA027A087B060319672A0130F90243
:1004B000790807390319672A4A2A0130A236A10CA4
:1004C000A00C890B5E2A0130A6002608FB077B08DA
:1004D0007A060319912A5D2A7B087A020318912A69
:1004E0000130A035A10DA20D890B712A0130FB024C
:1004F0007A087B0603198D2A0130F9027908073939
:1005000003198D2A702A0130A536A40CA30C890B7F
:10051000842A0130A6002608FA077B087A06031D04
:10052000832AF91FA32AFF30A006FF30A106FF305F
:10053000A2060130A007003003180130A1070030E7
:1005400003180130A207791FB52AFF30A306FF3038
:10055000A406FF30A5060130A307003003180130C0
:10056000A407003003180130A507F9012008A307EC
:100570002108A43D2208A53DA51FD02AFF30A306CF
:10058000FF30A406FF30A5060130A3070030031892
:100590000130A407003003180130A507F901F90A5A
:1005A0002308F1002408F2002508F3007B08A600C8
:1005B0002608F4007908A7002708F5008631D2261E
:1005C00071082000A0007208A1007308A2000800B2
:1005D0000030F1000030F2000030F3002000340859
:1005E000F4003508F5003608F6008F3176278231A1
:1005F000031C192B20003408F1003508F2003608DE
:10060000F3000030F4000030F5000030F6008F31C8
:10061000762782310318112B21302100A8000030E9
:10062000A90000302000B4000030B5000030B60052
:10063000080020003408BD003508BE003608BF00A1
:100640003409B7003509B8003609B900B70A0319EB
:10065000B80A0319B90AC8303707C4006E30383DEC
:10066000C500BE30393DC6000130C636C50CC40CCD
:10067000890B352B0030B7008030B8000030B9004E
:100680003708BD023808BE3B3908BF3B0430B7000D
:100690003708C0004408BA004508BB004608BC0043
:1006A0003D08A4003E08A5003F08A6004408A70096
:1006B0004508A8004608A90084319424823120000E
:1006C0002408C1002508C2002608C3004408A4006D
:1006D0004508A5004608A6004108A7004208A80052
:1006E0004308A90084319424823120002408C100E9
:1006F0002508C2002608C3004408A4004508A50038
:100700004608A6004108A7004208A8004308A9001F
:1007100084319424823120002408C1002508C200BD
:100720002608C3000030A400C030A5003F30A6005A
:100730004408A7004508A8004608A900843194246D
:10074000823120002408C4002508C5002608C60000
:100750004108AA004208AB004308AC004408AD00C1
:100760004508AE004608AF008C31E02482312000FD
:100770002A08C4002B08C5002C08C6000130C0029E
:10078000031D4A2B3408A4003508A5003608A6002E
:100790004408A7004508A8004608A900843194240D
:1007A00020002408B4002508B5002608B60008007B
:1007B0008B132300151515132000E201E03071059D
:1007C000E000FF307205E10071081F39F50075087F
:1007D000E300740862020318902C64002000E40116
:1007E000203064020318182C64002000640860079D
:1007F000F50061080318610AF600750823009100EE
:100800007608920015141518032C20006435203E3C
:100810008600870123001308C03F1408C13F013040
:10082000F50075082000E40720306402031CF42B57
:1008300023001516200061082300920020006008A4
:100840002300910055309600AA3096009514951813
:10085000272C000000002030200063020318532CD6
:1008600064007408200062020318532C62087307A6
:10087000F5007508860087010108F600F701633569
:10088000203E860087017608C03F7708C13F0130CF
:10089000F5007508E2070130F5007508E307203020
:1008A0006302031C302CE301E401203064020318CE
:1008B0008B2C64086007F50061080318610AF600D4
:1008C0007508230091007608920020006435203ED0
:1008D00086008701403F23009300413F94001F3072
:1008E00020006406031D772C23009512792C230029
:1008F000951655309600AA309600951495187E2CC2
:10090000000000000130F50075082000E4072030E9
:100910006402031C592C2030E0070030E13DE92B34
:100920008B1723001511080020002408AA002508B1
:10093000AB002608AC0003102B0D2C0DAD002D08CC
:10094000AE002E08031DAB2C0030A4000030A50023
:100950000030A60008002708AA002808AB002908D4
:10096000AC0003102B0D2C0DAD002D08B300330887
:10097000031DC12C0030A4000030A5000030A600EB
:10098000080033087B3EAA002A08AE072408AA0004
:100990002508AB002608AC001030AC36AB0CAA0C16
:1009A000890BCD2C2A08AD002D08B3002708AA001A
:1009B0002808AB002908AC001030AC36AB0CAA0CF0
:1009C000890BDD2C2A08AD002D08B3068030AA0063
:1009D0002A08B305A517A817FF30A705FF30A805FB
:1009E0000030A9050030AF000030B0000030B10089
:1009F0000730AA002A08B200241C042D2708AF07DC
:100A00002808B03D2908B13D0130A636A50CA40C3C
:100A1000890B052D0130A735A80DA90D890B0B2DCC
:100A20000130B202031DFC2C0930AA002A08B200D2
:100A3000241C202D2708AF072808B03D2908B13D08
:100A40000130A636A50CA40C890B212D0130B1363E
:100A5000B00CAF0C890B272D0130B202031D182DED
:100A60002F08F1003008F2003108F3002E08AA0028
:100A70002A08F4003308AB002B08F5008631D22693
:100A800071082000A4007208A5007308A6000800E1
:100A900020003708BA003808BB003908BC00031032
:100AA0003B0D3C0DBD003D08C2004208031D5F2DFB
:100AB0000030B4000030B5000030B6000800340843
:100AC000BA003508BB003608BC0003103B0D3C0DD6
:100AD000BD003D08C3004308031D752D0030B40060
:100AE0000030B5000030B60008000030BF00003014
:100AF000C0000030C10089304307BA003A08C20282
:100B00003708BA003808BB003908BC001030BC36C2
:100B1000BB0CBA0C890B872D3A08BD003D08C300F9
:100B20003408BA003508BB003608BC001030BC36AB
:100B3000BB0CBA0C890B972D3A08BD003D08C306C3
:100B40008030BA003A08C305B817FF30B705FF3048
:100B5000B8050030B905B517FF30B405FF30B5054D
:100B60000030B6051830BA003A08BE000130BF3573
:100B7000C00DC10D890BB72D36083902031DC62DD6
:100B800035083802031DC62D34083702031CCF2D4B
:100B90003408B7023508B83B3608B93B3F1401307A
:100BA000B735B80DB90D890BD02D0130BE02031D2C
:100BB000B62D3F08F1004008F2004108F30042085A
:100BC000BA003A08F4004308BB003B08F500863140
:100BD000D22671082000B4007208B5007308B60070
:100BE00008007C180800053020006A020318652EF2
:100BF00021004A1C652E4C082000A800280821006E
:100C0000BD00BE014B082000A80028082100BF003D
:100C100020008D1E0F2E2100C001C00A152E0230AB
:100C20002000A80028082100C000C10123082000DE
:100C3000A900210024082000AA0021002508200086
:100C4000AB002908A80028082100C20020002A08BB
:100C5000A80028082100C30020002B08A8002808AD
:100C60002100C40020082000AC0021002108200041
:100C7000AD00210022082000AE002C08A8002808A2
:100C80002100C50020002D08A80028082100C6006A
:100C900020002E08A80028082100C7000B302000E3
:100CA000A8002808A200BD308731362785310130E1
:100CB0002000A8002808EA0701308C31FE246430A7
:100CC0002000A8002808EC00080020006B14080091
:100CD0008A31E422863124000D08FA007A082000C7
:100CE000A200043024008D0021001D08FA007A08BB
:100CF0002000A60021009D0122001708FA007A08B2
:100D00002000A5002200970127001508FA007A08A4
:100D10002000A0000B08FA007A08A10088308B00A0
:100D20000430270095002000A70122000C1C9B2EF8
:100D30002000A701A70A21001708FA007A0820005E
:100D4000A3002130210097001508FA007A0820003E
:100D5000A4000A30210095006400630020002008F0
:100D600027009500200021088B00220824008D0018
:100D70002000260821009D00200025082200970061
:100D80000C10200027080319C72E22000C14200085
:100D9000230821009700200024082100950020004E
:100DA000EB14080074080319DA2E73087204710436
:100DB000031DEB2E0030F1000030F2000030F30094
:100DC00008000130F6007608F4070130F336F20C23
:100DD000F10C890BE62EFE3073050319042FE12E6A
:100DE0000130F6007608F4070130F10700300318EF
:100DF0000130F207003003180130F3070130F336F9
:100E0000F20CF10C890BFF2EFF3073050319152F1F
:100E1000F02E02307402031C172F0130F40201304F
:100E2000F135F20DF30D890B102FF21F092F7418F5
:100E30001F2FFF30F1057F30F205FF30F30503105F
:100E4000F40C7408F600F701F8011030F635F70DD0
:100E5000F80D890B262F7608F1047708F20478083C
:100E6000F304750803190800F31708002000A50013
:100E7000640027302000A3002308F700F801F80AD7
:100E800035308C314D2487311F3020002705A300D9
:100E90000D3023060319522F1F302705A30023030B
:100EA000031D382F36308B319223873124302000B8
:100EB000A3002308F700F801F80A3B308C314D24D9
:100EC000873126302000A3002308F700F801F80A34
:100ED0003A308C314D2487313B308B31922387312E
:100EE00026302000A3002308F700F801F80A3A3062
:100EF0008C314D24873120002508F7000030F800A0
:100F00002208A3002308F9003F308731DF2787310B
:100F100035308B31922308002000E801033068024D
:100F20000318D32F6400200068088D31A525873170
:100F3000200068088D311C258731200068088D311C
:100F4000CB258731200068088B3170238731200042
:100F500068088A31F4228731200068088C31C22465
:100F60008731200068088E31A42687312000680868
:100F70008A31FF228731200068088D315B25873157
:100F8000200068088B31BA238731200068088D3132
:100F9000F425873101302000E7006708E8070330B7
:100FA0006802031C922F8B1764008F31082787314A
:100FB0008C31862487318A31D2228731D42F200088
:100FC000A00022008C12200020083F394038FA008F
:100FD0007A08A1002130F1000030F200F301F30A99
:100FE0008C31692487317708F1007808F20079089C
:100FF000FA007A08F3008C31692422008C1608006C
:10158000FF3FFF3FFF3FFF3FFF3FFF3FFF3FFF3F6B
:1015900022008E177C10080021002E1463302000DA
:1015A0009500080020000D1808008F31B1270800B1
:1015B000FE0012001E00FE0BD92A003464008001D8
:1015C0000131890BDF2A003422008C1238308B3134
:1015D000922322008C16080003340F341E34273463
:1015E00050348134CB34C234F100F92A22008E17F2
:1015F00008007108023A0319F62AFE2A0800F100D1
:10160000042B2300950108007108003A0319012BEF
:10161000092B08005C3021004806031D132BC53040
:101620004906031908008B31602308002000A3003D
:101630002308A1002108F7002008A2002208F800D2
:101640003F308C314D2408002030F1003830F2005A
:10165000C830F8007808F3000530F9007908F40084
:101660008331D82308002030F1003830F200C83030
:10167000F8007808F3000530F9007908F4008D319E
:101680007F2508006430F1000030F2008B31FF2329
:101690008B31803141208B312000EA018F313C2792
:1016A00008006430F1000030F2008B31FF238B31F1
:1016B000803141208B312000EA018531F12508007D
:1016C0005C30FA007A082100C800C530FA007A08B8
:1016D000C900CA01CB01CC018B31242301000800D1
:1016E000F1007B2B2000ED01EE01EF012100B101A3
:1016F000AF01B00108007108013A0319722B802B69
:10170000080020006C08031908000130EC026C0886
:10171000031D08007C1C8F2B8F313C27080085316E
:10172000F1250800F80022008C1278083F39803833
:10173000F7007708F9007930F1000030F200F3018A
:10174000F30A8C31692422008C1608007908F10014
:101750007A08F200F3018E302000A0002008F40087
:10176000F5018631D2267108F9007208FA00730873
:10177000FB000800FB00C72B013020009800080088
:10178000FC018B3133238B318B310A2308007B081A
:10179000003A0319BC2B013A0319C02BCF2B0800C8
:1017A000FC18E52B21004B08031DE02B2000160838
:1017B0001706E50065082100CB008B3124238B310F
:1017C0007C1422008E138B314223FC100800210070
:1017D000CA01200016081706FA007A082100CB007B
:1017E0004B08031DF72B0130FA007A08CB078B3129
:1017F00024238B3103308C31A424FC140800F50120
:10180000F60172087602031D072C71087502031891
:10181000080064000330F4009730F300F30B0E2C43
:10182000F40B0E2C00320130F5070030F63D012C90
:1018300022008C120130F1000030F2008B31FF23C6
:101840008C3122008C160130F1000030F2008B3117
:10185000FF238C3102308E31A4268C3102308D3141
:101860005B250800F501F601711C3A2C7308F50799
:101870007408F63D0130F335F40D890B3B2C013033
:10188000F236F10C890B402C71087204031D342CC4
:101890007608F2007508F1000800FA0022008C12A8
:1018A0007A083F39C038F9007908FB007B30F10035
:1018B0000030F200F301F30A8C3169248C3178088E
:1018C000F9007908F10077088D313B2522008C164C
:1018D0000800F60173087602031808002000911131
:1018E0007608F400F5017408710786007508723DEA
:1018F000870001082400910020009119812C00002C
:101900007C2C0130F4007408F6076A2C2000EF01EB
:101910000D1D6F146F080139F1006E080139710651
:1019200003199A2C6E106F1C962C6E142100AD01B9
:1019300020006D146E1C9E2CED1408002100AA01DD
:10194000AB012000ED100800F800F90178087902D9
:1019500003180800640022008E13C830F100003024
:10196000F2008B31FF238C3122008E17C830F1003A
:101970000030F2008B31FF238C310130F700770803
:10198000F907A62CF200D42C21000E16D730F10056
:1019900071088E0524009512910101309500960181
:1019A00040309400951608007208003A0319C42CC0
:1019B000013A0319DF2C033A0319DF2CDF2C08004E
:1019C00020002C082B042A040319E82C8030AC06D4
:1019D0002D08A0002E08A1002F08A2002A08A300AD
:1019E0002B08A4002C08A5008131F221200020083A
:1019F000AA002108AB002208AC000800F800F90199
:101A00007808790203180800640022008E1305305C
:101A1000F1000030F2008B31FF238C3122008E1751
:101A20000530F1000030F2008B31FF238C310130A2
:101A3000F7007708F907002DF200352D0630F10088
:101A4000710821008C042730F10071088D040E16F6
:101A5000D830F100710823008D05EF30F1007108D6
:101A60008E05273024008D0008007208003A031903
:101A70001E2D3A2D0800F400F501710875020318B7
:101A8000080020009111FF302400910020009119DE
:101A90004B2D0000462D24001108F2007508740734
:101AA000F300730886008701720881000130F2009C
:101AB0007208F5073D2D2000DF00722DEC01EA01D0
:101AC0002100AC01080036308B3192238D31333048
:101AD0008B3192238D3134308B3192238D318B3188
:101AE0005123080020005F08003A03197E2D013AB7
:101AF00003195E2D033A0319632D7E2D0800230080
:101B00001513F701740877020318080064007708BA
:101B10007107F50072080318720AF60075082300B1
:101B200091007608920015141518942D1308F500ED
:101B300077087307F600760886008701750881002C
:101B40000130F5007508F707822DF200C22D06302E
:101B50002100950073309900093097002700940107
:101B600095016330200095008B16FB30F100710861
:101B70008B05910192012100910192010800210041
:101B8000AE0108007208003A0319A72D013A0319A3
:101B9000BF2DCA2D0800F200EE2D0630F1007108AD
:101BA00021008C052730F10071088D051030F100FF
:101BB00071088E050630F100710823008C0527306E
:101BC000F10071088D051030F10071088E05FE30AE
:101BD000F100710820008C058E1708007208003A89
:101BE0000319CD2DF32D0800F200162E053021002B
:101BF0009D0083309E008130220097000630F10066
:101C0000710823008C0408002000E9012100A601CE
:101C1000A7010030A0000030A1000030A200003079
:101C2000A3000030A4000030A50008007208003AAC
:101C30000319F62D013A0319042E1E2E0800200068
:101C40006D1C372E0130F10071082100AD07063000
:101C50002D02031C372E20006D102100AD01200045
:101C60006E1C352E21002F14372E21003114200038
:101C7000ED1C080001302100AA070030AB3D003008
:101C80002B02C93003192A02031C0800AA01AB0168
:101C9000301408008E30F9007908FA00FF30200077
:101CA00023050319602E01302000A336A20CA10CDD
:101CB000A00C890B542E0130F9007908FA074E2E3A
:101CC0002008F1002108F2002208F3007A08F90048
:101CD0007908F400F5018631D22671082000A000B1
:101CE0007208A1007308A2000800473446344E343D
:101CF0000B34D33491340B340834043400340034BE
:101D000006340034213463349134CA3483340234C9
:101D100002343B34343407343F34083416346C34E2
:101D200003344034913487346B34FB3456341634E6
:101D3000E9342A3400341F344134003459347F34B8
:101D40003F348134353409342000A200CA2E3030AB
:101D50008B3192238E310530F1000030F2008B314F
:101D6000FF238E312030F7000130F8002E30FB00C9
:101D70007B08F90000308731DF278E31CD30F70046
:101D80000030F8000830FB007B08F9003E30873156
:101D9000DF27080020002208013A0319D32E033A56
:101DA0000319A72ED32E0800F601F701710872045B
:101DB0000319032FF801F80AF21BE82E0130F13560
:101DC000F20D890BDF2E0130F5007508F807DC2EC7
:101DD0000130F635F70D890BE92E72087402031DE8
:101DE000F32E71087302031CFA2E7108F3027208B5
:101DF000F43B76140130F236F10C890BFB2E0130E6
:101E0000F802031DE82E7708F2007608F1000800BA
:101E100021002E1C152F2E108B3181238F318E31F6
:101E20001F268F31803103208F3121002F182F1072
:101E3000311C1E2F31108B31D0238F312100301CEB
:101E4000252F30108B31E7238F3120006B1C2E2F74
:101E50006B100D1D2E2F863168268F3121002C1C12
:101E6000352F2C108A31C8228F312000EB1C08003E
:101E7000EB108C3118240800053020006A0203188A
:101E8000712F2100BD01BE014B082000A8002808C9
:101E90002100BF0020008D1E512F2100C001C00A6B
:101EA000572F02302000A80028082100C000C101DF
:101EB000C10AC201C301C401C501C601C7010B307B
:101EC0002000A8002808A200BD3087313627013045
:101ED0002000A8002808EA076430A8002808EC00C1
:101EE00008008A31C82220006B140800F31F8C2FD1
:101EF0007109F7007209F8007309F900F70A03196C
:101F0000F80A0319F90A00307707F1000030783D2C
:101F1000F2008030793DF300F61FA22F7409F7001C
:101F20007509F8007609F900F70A0319F80A031988
:101F3000F90A00307707F4000030783DF500803072
:101F4000793DF6008030F3068030F606760873029D
:101F5000031D080075087202031D08007408710251
:101F6000080066302000E5006508F700F801F80A6F
:101F70003B308C314D248F310B3020006602031C26
:101F8000080064000B302000E5006508A000B230B6
:101F90008B3116238F317C1CEB2F813021003606CC
:101FA000031DB12F4B083206031DB12F340820004A
:101FB000E50065082100CC004A148B3124238F31C1
:101FC0008A31C8228F312000EC0103308C31A424E7
:101FD0008F312000FE2F803021003606031DB12FE7
:101FE0004B083206031DB12F4C083406031DB12FD8
:101FF00036308B3192238F312000EC016B14B12FDE
:107040005C34C5340034003400340034003400347F
:107050000034003400340034003400340034003490
:107060000034003400340034003400340034003480
:107070000034003400340034003400340034003470
:020000040001F9
:04000E001CEFFFD70D
:080000000D000D0003000F00CC
:00000001FF
