:020000040000FA
:1000000080311428FF3F0800803120007F08F00075
:100010000B1D0D280B118831892027001619161188
:1000200070082000FF000900803116282830840065
:1000300023308500C830FE000030FF008831CB201F
:100040008031FC01A0308400003085003630FE0095
:100050000030FF008831CB2080319530840088301B
:100060008500D6308600003087000030FF00083061
:100070008831BF2080312A3084008C3085002030C8
:100080008600013087000030FF002F308831BF200C
:1000900020008E31382E22000C14933021009E0057
:1000A00005309D0006302000D700D70B55280000F2
:1000B0002200E1010A3061020318AC2821009D14DE
:1000C00021009D1C65286400602822006108200032
:1000D000D700D801D735D80D2830D9002330DA0021
:1000E00057085907DB0058085A3DDC005B088600BA
:1000F0005C08870021001B088100220061082000A5
:10010000D700D801D735D80D5708013ED9000030A7
:10011000583DDA002830DB002330DC0059085B074B
:10012000DD005A085C3DDE005D0886005E08870041
:1001300021001C0881001430F1000030F2008931E8
:10014000B121803101302000D70057082200E1079B
:100150000A306102031C5E28D601D701E1010A3092
:1001600061020318D82861082000D700D801D735CC
:10017000D80D2830D9002330DA00570859078600F7
:1001800058085A3D8700403FDB00413FDC005B08D8
:100190002200D60720005C082200D73D0130200055
:1001A000D70057082200E1070A306102031CB32878
:1001B0000A30F1000030F2005708F4005608F3004E
:1001C0008C31EB24803172082100AA007108A9004B
:1001D00000302000C7008030C8004430C900123011
:1001E000A4008330A5003F30A60021002A08FA00B1
:1001F0002908F90089315821803179082000A700A9
:100200007A08A8007B08A9008631DA268031200010
:100210002408CA002508CB002608CC008F315727B8
:100220008031200047082200CF002000480822002B
:10023000D000200049082200D10000302000A40096
:100240003030A5004130A60022004F082000A70052
:10025000220050082000A800220051082000A90018
:100260008631DA268031200024082100A0002000F9
:1002700025082100A100200026082100A20022005C
:100280000C10933021009E0009309D0006302000A4
:10029000D700D70B492900002200E1016430610238
:1002A0000318A02921009D1421009D1C59296400D8
:1002B0005429220061082000D700D801D735D80D75
:1002C0002830D9002330DA0057085907DB005808D6
:1002D0005A3DDC005B0886005C08870021001B0893
:1002E0008100220061082000D700D801D735D80D41
:1002F0005708013ED9000030583DDA002830DB00B5
:100300002330DC0059085B07DD005A085C3DDE0045
:100310005D0886005E08870021001C088100B73058
:10032000F1000030F2008931B1218031013020002C
:10033000D70057082200E10764306102031C5229EC
:100340000030DB000030DA000030D9000030D80087
:10035000E101643061020318FD2961082000D70023
:10036000D801D735D80D2830570784002330583DA1
:100370008500003FD900013FDA00DB01DC015C08A9
:1003800022005B02031DD42920005B0822005A02D0
:10039000031DD42920005A0822005902031DD42924
:1003A00020005908220058020318F3296108200090
:1003B000D700D801D735D80D2830D9002330DA003E
:1003C00057085907860058085A3D8700403FDB0010
:1003D000413FDC005B082200D80020005C082200BE
:1003E000D900DA01DB0101302000D70057082200D4
:1003F000E10764306102031CAD2900302000B40025
:100400000030B5004030B60085312E258031200007
:100410003408C7003508C8003608C90022005B0848
:100420002000A30022005A082000A2002200590840
:100430002000A100220058082000A0008B31D0230A
:10044000803120002008CA002108CB002208CC00FF
:100450008F3157278031200047082100A600200057
:1004600048082100A700200049082100A80000300A
:100470002200D5000030D4000030D3000030D2007C
:10048000E101643061020318BC2A0030E000003052
:10049000DF000030DE000030DD00DC0105305C02F2
:1004A0000318802A61082000D700D801D735D80D5D
:1004B0002830D9002330DA00570859078600580839
:1004C0005A3D8700403FDB00413FDC005B082200D3
:1004D000DD0720005C082200DE3D0030DF3DE03D0E
:1004E00001302000D70057082200DC07013020002F
:1004F000D70057082200E10705305C02031C522A8E
:100500000030F4000030F3000030F2000530F1005C
:100510006008F8005F08F7005E08F6005D08F50067
:100520008D31E525803174082200E0007308DF007A
:100530007208DE007108DD006008F4005F08F30057
:100540005E08F2005D08F1006008F8005F08F7003F
:100550005E08F6005D08F5008C31B9248031710821
:100560002200D2077208D33D7308D43D7408D53DEC
:1005700064306102031C452A00302000A4000030D2
:10058000A5004030A600220055082000A30022004C
:1005900054082000A200220053082000A1002200DD
:1005A00052082000A0008B31D02380312000200889
:1005B000A7002108A8002208A9008631DA26803188
:1005C000200024082100A300200025082100A40009
:1005D000200026082100A50012302000A40083304E
:1005E000A5003F30A600210023082000A70021001D
:1005F00024082000A800210025082000A900863139
:10060000DA268031200024082100A30020002508DC
:100610002100A400200026082100A500123020009F
:10062000A4008330A5003F30A6002100230820004D
:10063000A700210024082000A80021002508200090
:10064000A9008631DA268031200024082100A30089
:10065000200025082100A400200026082100A50074
:1006600000302000A400FA30A5004430A60021008C
:1006700023082000A700210024082000A800210052
:1006800025082000A9008631DA26803120002408C0
:100690002100A300200025082100A4002000260836
:1006A0002100A50000302000A400FA30A50044304D
:1006B000A600210023082000A70021002408200014
:1006C000A800210025082000A9008631DA26803103
:1006D000200024082100A300200025082100A400F8
:1006E000200026082100A50000302000C70080302F
:1006F000C8004430C900210023082000CA0021009E
:1007000024082000CB00210025082000CC008F31D8
:1007100057278031200047082100A3002000480807
:100720002100A400200049082100A500003020007D
:10073000C7008030C8004430C900210023082000D1
:10074000CA00210024082000CB0021002508200039
:10075000CC008F3157278031200047082100A300AB
:10076000200048082100A400200049082100A5001D
:10077000CD302000C7000430C8004230C90021003D
:1007800023082000CA00210024082000CB002100FB
:1007900025082000CC008F315727803120004708E2
:1007A0002100A300200048082100A40020004908DF
:1007B0002100A500CD302000C7000430C800423021
:1007C000C900210023082000CA00210024082000BD
:1007D000CB00210025082000CC008F315727803125
:1007E000200047082100A300200048082100A400A1
:1007F000200049082100A50000302000C700A030DB
:10080000C8004130C900210023082000CA0021008F
:1008100024082000CB00210025082000CC008F31C7
:1008200057278031200047082100A30020004808F6
:100830002100A400200049082100A5002308200071
:10084000B400210024082000B50021002508200064
:10085000B60085312E25200034082100A300200099
:1008600035082100A400200036082100A50008005A
:1008700020002008A6002108A7002208A8000310D5
:10088000270D280DA9002908FB002308A60024082D
:10089000A7002508A8000310270D280DA900290886
:1008A000FA007B080319602C7A087B020318672C76
:1008B0007B03FF3A7A07A60019302602031C672C37
:1008C0002308A0002408A1002508A20008007A0837
:1008D000031908007B087A020318762C7A03FF3A82
:1008E0007B07A60019302602031808000630A60070
:1008F0002608F900A21BF917A51B7917A117FF30CD
:10090000A005FF30A1050030A205A417FF30A30504
:10091000FF30A4050030A5057A087B020318B22C2D
:100920000130A335A40DA50D890B912C0130FA02DD
:100930007A087B060319AD2C0130F90279080739D2
:100940000319AD2C902C0130A236A10CA00C890B00
:10095000A42C0130A6002608FB077B087A060319A1
:10096000D72CA32C7B087A020318D72C0130A03592
:10097000A10DA20D890BB72C0130FB027A087B0672
:100980000319D32C0130F902790807390319D32C44
:10099000B62C0130A536A40CA30C890BCA2C01304F
:1009A000A6002608FA077B087A06031DC92CF91F42
:1009B000E92CFF30A006FF30A106FF30A20601306F
:1009C000A007003003180130A107003003180130E0
:1009D000A207791FFB2CFF30A306FF30A406FF30CF
:1009E000A5060130A307003003180130A40700302A
:1009F00003180130A507F9012008A3072108A43D29
:100A00002208A53DA51F162DFF30A306FF30A40622
:100A1000FF30A5060130A307003003180130A407FA
:100A2000003003180130A507F901F90A2308F10085
:100A30002408F2002508F3007B08A6002608F4002D
:100A40007908A7002708F50087318E277108200054
:100A5000A0007208A1007308A20008000030F10095
:100A60000030F2000030F30020003408F4003508B4
:100A7000F5003608F6008D311F258531031C5F2DEA
:100A800020003408F1003508F2003608F300003089
:100A9000F4000030F5000030F6008D311F2585315F
:100AA0000318572D21302100AB000030AC0000307E
:100AB0002000B4000030B5000030B600080020006F
:100AC0003408BD003508BE003608BF003409B70041
:100AD0003509B8003609B900B70A0319B80A03196D
:100AE000B90AC8303707C4006E30383DC500BE3083
:100AF000393DC6000130C636C50CC40C890B7B2DB0
:100B00000030B7008030B8000030B9003708BD02AF
:100B10003808BE3B3908BF3B0430B7003708C00077
:100B20004408BA004508BB004608BC003D08A400C4
:100B30003E08A5003F08A6004408A7004508A800F5
:100B40004608A9008631DA26853120002408C10034
:100B50002508C2002608C3004408A4004508A500D3
:100B60004608A6004108A7004208A8004308A900BB
:100B70008631DA26853120002408C1002508C2000C
:100B80002608C3004408A4004508A5004608A6009E
:100B90004108A7004208A8004308A9008631DA26C8
:100BA000853120002408C1002508C2002608C300A2
:100BB0000030A400C030A5003F30A6004408A700C4
:100BC0004508A8004608A9008631DA2685312000AC
:100BD0002408C4002508C5002608C6004108AA004C
:100BE0004208AB004308AC004408AD004508AE0025
:100BF0004608AF008A315922853120002A08C400F6
:100C00002B08C5002C08C6000130C002031D902D22
:100C10003408A4003508A5003608A6004408A7003B
:100C20004508A8004608A9008631DA2620002408D5
:100C3000B4002508B5002608B60008008B13230071
:100C4000151515132000E201E0307105E000FF30BA
:100C50007205E10071081F39F5007508E30074089A
:100C600062020318D62E64002000E40120306402E2
:100C700003185E2E6400200064086007F500610818
:100C80000318610AF60075082300910076089200A7
:100C900015141518492E20006435203E8600870162
:100CA00023001308C03F1408C13F0130F500750848
:100CB0002000E40720306402031C3A2E230015169E
:100CC00020006108230092002000600823009100AA
:100CD00055309600AA309600951495186D2E000098
:100CE00000002030200063020318992E640074086D
:100CF000200062020318992E62087307F500750838
:100D0000860087010108F600F7016335203E860062
:100D100087017608C03F7708C13F0130F5007508AC
:100D2000E2070130F5007508E30720306302031C79
:100D3000762EE301E401203064020318D12E64080A
:100D40006007F50061080318610AF60075082300C2
:100D500091007608920020006435203E86008701CD
:100D6000403F23009300413F94001F302000640661
:100D7000031DBD2E23009512BF2E2300951655305E
:100D80009600AA30960095149518C42E0000000015
:100D90000130F50075082000E40720306402031CD0
:100DA0009F2E2030E0070030E13D2F2E8B172300CF
:100DB0001511080020002408AA002508AB00260809
:100DC000AC0003102B0D2C0DAD002D08AE002E082D
:100DD000031DF12E0030A4000030A5000030A60055
:100DE00008002708AA002808AB002908AC00031057
:100DF0002B0D2C0DAD002D08B3003308031D072F5C
:100E00000030A4000030A5000030A6000800330820
:100E10007B3EAA002A08AE072408AA002508AB00DA
:100E20002608AC001030AC36AB0CAA0C890B132F83
:100E30002A08AD002D08B3002708AA002808AB0037
:100E40002908AC001030AC36AB0CAA0C890B232F50
:100E50002A08AD002D08B3068030AA002A08B30581
:100E6000A517A817FF30A705FF30A8050030A90572
:100E70000030AF000030B0000030B1000730AA00F1
:100E80002A08B200241C4A2F2708AF072808B03DC3
:100E90002908B13D0130A636A50CA40C890B4B2FB7
:100EA0000130A735A80DA90D890B512F0130B202D1
:100EB000031D422F0930AA002A08B200241C662F05
:100EC0002708AF072808B03D2908B13D0130A636F4
:100ED000A50CA40C890B672F0130B136B00CAF0CF8
:100EE000890B6D2F0130B202031D5E2F2F08F10018
:100EF0003008F2003108F3002E08AA002A08F40096
:100F00003308AB002B08F50087318E2771082000CD
:100F1000A4007208A5007308A6000800740803194D
:100F2000962F730872047104031DA72F0030F1007F
:100F30000030F2000030F30008000130F6007608BF
:100F4000F4070130F336F20CF10C890BA22FFE30BE
:100F500073050319C02F9D2F0130F6007608F407A2
:100F60000130F107003003180130F2070030031898
:100F70000130F3070130F336F20CF10C890BBB2F73
:100F8000FF3073050319D12FAC2F02307402031CFC
:100F9000D32F0130F4020130F135F20DF30D890B3E
:100FA000CC2FF21FC52F7418DB2FFF30F1057F30D7
:100FB000F205FF30F3050310F40C7408F600F70196
:100FC000F8011030F635F70DF80D890BE22F760891
:100FD000F1047708F2047808F3047508031908008F
:100FE000F31708002000A3002308A1002108F70040
:100FF0002008A2002208F8003F308931E4210800CF
:10110000FF3FFF3FFF3FFF3FFF3F22008E177C1056
:1011100008002100341463302000950008002000EE
:101120000D1808008D319625080003340F341E3445
:10113000273450348134CB34C234F100A228220049
:101140008E1708007108023A03199F28A728080083
:10115000F100AD282300950108007108003A031939
:10116000AA28B22808005C3021005106031DBC28C3
:10117000C530520603190800893123210800FE00FA
:1011800012001E000130FE020030FF3B7F087E048B
:1011900003190034C0286400800101310130FE02CF
:1011A0000030FF3B7F087E0403190034CC28203038
:1011B000F1003830F200D130F8007808F300053043
:1011C000F9007908F40086311E2608002030F1006D
:1011D0003830F200D130F8007808F3000530F9001B
:1011E0007908F4008B315B2308006430F100003093
:1011F000F2008931B121883180314B2088312100C2
:10120000AF018D315A2508006430F1000030F20042
:101210008931B121893180314B2089312100AF01E1
:101220008E31E1260800F1001D292100B501B90128
:10123000BA01B801B601B70108007108013A0319F3
:101240001529222908005C30FA007A082100D10013
:10125000C530FA007A08D200D301D401D501883113
:10126000D7200100080021003308031908000130CD
:10127000B3023308031D08007C1C41298D315A2517
:1012800008008E31E1260800F80022008C12780850
:101290003F398038F7007708F9007930F1000030E5
:1012A000F200F301F30A8A31002222008C160800B2
:1012B0007908F1007A08F200F3018E302000A000D6
:1012C0002008F400F50187318E277108F9007208B3
:1012D000FA007308FB000800FB00792901302000A8
:1012E00098000800FC018831E62089318831B3205C
:1012F00008007B08003A03196E29013A0319722984
:1013000081290800FC18972921005408031D9229FF
:10131000200016081706E50065082100D400883172
:10132000D72089317C1422008E138831F520FC10DF
:1013300008002100D301200016081706FA007A08D9
:101340002100D4005408031DA9290130FA007A08AD
:10135000D4078831D720893103308A311D22FC140B
:101360000800F501F60172087602031DB92971081B
:1013700075020318080064000330F4009730F3008E
:10138000F30BC029F40BC02900320130F5070030FF
:10139000F63DB32922008C120130F1000030F2003A
:1013A0008931B121893122008C160130F1000030E1
:1013B000F2008931B121893102308C3159248931CF
:1013C00002308B3137230800FA0022008C127A0891
:1013D0003F39C038F9007908FB007B30F10000305C
:1013E000F200F301F30A8A31002289317808F9000A
:1013F0007908F10077088A31D32222008C16080080
:10140000F60173087602031808002000911176088F
:10141000F400F5017408710786007508723D8700B5
:1014200001082400910020009119182A0000132AB5
:101430000130F4007408F607012AF800F901780871
:10144000790203180800640022008E13C830F100EE
:101450000030F2008931B1218A3122008E17C83064
:10146000F1000030F2008931B1218A310130F700FA
:101470007708F9071F2AF2004D2A21000E16D730EF
:10148000F10071088E05240095129101013095003C
:10149000960140309400951608007208003A03192E
:1014A0003D2A013A0319582A033A0319582A582A9F
:1014B000080020002C082B042A040319612A80301C
:1014C000AC062D08A0002E08A1002F08A2002A08B3
:1014D000A3002B08A4002C08A50084313824200088
:1014E0002008AA002108AB002208AC000800F80080
:1014F000F9017808790203180800640022008E13AD
:101500000530F1000030F2008931B1218A3122002A
:101510008E170530F1000030F2008931B1218A3197
:101520000130F7007708F907792A2100BA01200075
:101530000D199C2A21003A1421003A080139F100C2
:101540003908013971060319AC2A39103A1CA92A45
:1015500039142100B2013514391CB02AB514080021
:10156000AD01AE01B5100800F200CD2A0630F10041
:10157000710821008C042730F10071088D040E16CB
:10158000D830F100710823008D05EF30F1007108AB
:101590008E05273024008D0008007208003A0319D8
:1015A000B62AD22A0800F400F50171087502031862
:1015B000080020009111FF302400910020009119B3
:1015C000E32A0000DE2A24001108F20075087407DF
:1015D000F300730886008701720881000130F20071
:1015E0007208F507D52A2000A00022008C122000E6
:1015F00020083F394038FA007A08A1002130F10074
:101600000030F200F301F30A8A3100228A317708B0
:10161000F1007808F2007908FA007A08F3008A31BC
:10162000002222008C1608002100351C262B0130D8
:10163000F1007108B20706303202031C262B351068
:10164000B201391C252B3614262B3814B51C080082
:101650000130AD070030AE3D00302E02C930031915
:101660002D02031C0800AD01AE0137140800200054
:10167000DF004E2B2100B301AF01B101080036306D
:10168000893144218B313330893144218B313430DD
:10169000893144218B3189310421080020005F0801
:1016A000003A03195A2B013A03193A2B033A03194A
:1016B0003F2B5A2B080023001513F70174087702FB
:1016C00003180800640077087107F5007208031812
:1016D000720AF6007508230091007608920015142E
:1016E0001518702B1308F50077087307F6007608B5
:1016F00086008701750881000130F5007508F7073D
:101700005E2BF2009E2B063021009500733099006D
:10171000093097002700940195016330200095005F
:101720008B16FB30F10071088B05910192012100AD
:101730009101920108002100B40108007208003AEA
:101740000319832B013A03199B2BA62B0800F200E7
:10175000CA2B0630F100710821008C052730F100FA
:1017600071088D051030F10071088E050630F1000A
:10177000710823008C052730F10071088D051030A9
:10178000F10071088E05FE30F100710820008C0513
:101790008E1708007208003A0319A92BCF2B0800F6
:1017A0008E30F9007908FA00FF3020002305031974
:1017B000E62B01302000A336A20CA10CA00C890B53
:1017C000DA2B0130F9007908FA07D42B2008F10050
:1017D0002108F2002208F3007A08F9007908F400E1
:1017E000F50187318E2771082000A0007208A10042
:1017F0007308A2000800F200212C053021009D0092
:1018000093309E008130220097000630F10071086D
:1018100023008C0408002100A901AA010030A000C7
:101820000030A1000030A2000030A6000030A70068
:101830000030A8000030A3000030A4000030A50054
:1018400008007208003A0319FD2B013A03190B2C0A
:10185000292C0800473446344E340B34D3349134A9
:101860000B3408340434003400340634003421349A
:1018700063349134CA348334023402343B34343414
:1018800007343F34083416346C3403344034913414
:1018900087346B34FB3456341634E9342A3400343C
:1018A0001F344134003459347F343F34813435346B
:1018B00009342000A2007F2C3030893144218C3142
:1018C0000530F1000030F2008931B1218C31203037
:1018D000F7000130F8002E30FB007B08F9000030E3
:1018E0008A31F3228C31D630F7000030F80008300E
:1018F000FB007B08F9003E308A31F322080020000B
:101900002208013A0319882C033A03195C2C882C0D
:1019100008002100341C962C3410893133218C317D
:101920008B3114238C31803103208C3180314B205A
:101930008C31210036183610381CA22C3810893111
:1019400082218C312100371CA92C37108931992133
:101950008C31210030183010311CB22C31108831FC
:1019600085208C312100B01C0800B0108931CA21BB
:10197000080000302000A3000030A2000030A100C9
:101980000030A000711CCD2C75082000A00776083F
:10199000A13D7708A23D7808A33D0130F535F60D4D
:1019A000F70DF80D890BCE2C0130F436F30CF20C48
:1019B000F10C890BD52C7408730472047104031D97
:1019C000C22C20002308F4002208F3002108F200B2
:1019D0002008F1000800F701F801710872040319EA
:1019E0001A2DF601F60AF21BFF2C0130F135F20D2B
:1019F000890BF62C0130F5007508F607F32C013041
:101A0000F735F80D890B002D72087402031D0A2D9D
:101A100071087302031C112D7108F3027208F43B64
:101A200077140130F236F10C890B122D0130F602D9
:101A3000031DFF2C7808F2007708F1000800F31F5F
:101A4000352D7109F7007209F8007309F900F70ADA
:101A50000319F80A0319F90A00307707F10000307A
:101A6000783DF2008030793DF300F61F4B2D74096C
:101A7000F7007509F8007609F900F70A0319F80A62
:101A80000319F90A00307707F4000030783DF500BB
:101A90008030793DF6008030F3068030F606760817
:101AA0007302031D080075087202031D0800740804
:101AB00071020800053021002F020318912DC60184
:101AC000C70154082000A80028082100C8002000F1
:101AD0008D1E6E2D2100C901C90A742D023020000F
:101AE000A80028082100C900CA01CA0ACB01CC01FC
:101AF000CD01CE01CF01D0010B302000A800280875
:101B0000A200C6308E318B2601302000A8002808A4
:101B10002100AF0764302000A80028082100B3008E
:101B2000080088318520210030140800663020002C
:101B3000E5006508F700F801F80A3B308931E42137
:101B40008D310B3020006602031C080064000B304E
:101B50002000E5006508A000BB308731F2278D31F9
:101B60007C1CD02D813021003F06031D962D54088A
:101B70003B06031D962D3D082000E5006508210069
:101B8000D50053148831D7208D31883185208D318F
:101B90002100B30103308A311D228D312100E32D54
:101BA000803021003F06031D962D54083B06031D7F
:101BB000962D55083D06031D962D3630893144215A
:101BC0008D312100B3013014962D00302000A30088
:101BD0000030A2000030A1000030A000740873049F
:101BE0007204710403192F2EA401A40AF41B042EFD
:101BF0000130F135F20DF30DF40D890BF92D0130A3
:101C0000F9007908A407F62D0130A035A10DA20D29
:101C1000A30D890B052E74087802031D192E730875
:101C20007702031D192E72087602031D192E710802
:101C30007502031C242E7108F5027208F63B730826
:101C4000F73B7408F83B20140130F436F30CF20C27
:101C5000F10C890B252E0130A402031D042E23084C
:101C6000F4002208F3002108F2002008F100080027
:101C70002000E8010330680203187F2E6400200072
:101C800068088B3181238E31200068088A31B422A4
:101C90008E31200068088B31A7238E312000680820
:101CA000893113218E312000680888319D208E31C2
:101CB000200068088A313B228E31200068088C3170
:101CC00059248E31200068088831A8208E312000E8
:101CD00068088B3137238E312000680889316C21E8
:101CE0008E31200068088B31FB238E3101302000BB
:101CF000E7006708E80703306802031C3E2E8B17D5
:101D000064008C3189248E318A3195228E3188315C
:101D10008F208E31802E2000A50064002730200007
:101D2000A3002308F700F801F80A35308931E421CF
:101D30008E311F3020002705A3000D302306031924
:101D4000A72E1F302705A3002303031D8D2E363039
:101D5000893144218E3124302000A3002308F7006C
:101D6000F801F80A3B308931E4218E312630200019
:101D7000A3002308F700F801F80A3A308931E4217A
:101D80008E313B30893144218E3126302000A30032
:101D90002308F700F801F80A3A308931E4218E313E
:101DA00020002508F7000030F8002208A3002308CF
:101DB000F9003F308A31F3228E31353089314421A8
:101DC00008007C180800053021002F02031C531C5A
:101DD000552F55082000A80028082100C600C7017B
:101DE00054082000A80028082100C80020008D1EEB
:101DF000FD2E2100C901C90A032F02302000A800CE
:101E000028082100C900CA0126082000A9002100D5
:101E100027082000AA00210028082000AB0029087C
:101E2000A80028082100CB0020002A08A8002808C4
:101E30002100CC0020002B08A80028082100CD009C
:101E400020082000AC00210021082000AD00210066
:101E500022082000AE002C08A80028082100CE008F
:101E600020002D08A80028082100CF0020002E08FF
:101E7000A80028082100D0000B302000A800280866
:101E8000A200C6308E318B268E3101302000A80092
:101E900028082100AF0701308A3177226430200002
:101EA000A80028082100B300080030140800200012
:101EB0004A08CD004B08CE004C08CF0003104E0D51
:101EC0004F0DD0005008D5005508031D6E2F00306F
:101ED000C7000030C8000030C90008004708CD0026
:101EE0004808CE004908CF0003104E0D4F0DD0001A
:101EF0005008D6005608031D842F0030C70000305C
:101F0000C8000030C90008000030D2000030D30003
:101F10000030D40089305607CD004D08D5024A085C
:101F2000CD004B08CE004C08CF001030CF36CE0C81
:101F3000CD0C890B962F4D08D0005008D6004708CD
:101F4000CD004808CE004908CF001030CF36CE0C67
:101F5000CD0C890BA62F4D08D0005008D606803036
:101F6000CD004D08D605CB17FF30CA05FF30CB0595
:101F70000030CC05C817FF30C705FF30C80500305A
:101F8000C9051830CD004D08D1000130D235D30D30
:101F9000D40D890BC62F49084C02031DD52F4808C4
:101FA0004B02031DD52F47084A02031CDE2F4708AA
:101FB000CA024808CB3B4908CC3B52140130CA3511
:101FC000CB0DCC0D890BDF2F0130D102031DC52FA6
:101FD0005208F1005308F2005408F3005508CD00F0
:101FE0004D08F4005608CE004E08F50087318E27C4
:101FF00071082000C7007208C8007308C9000800F3
:107040005C34C5340034003400340034003400347F
:107050000034003400340034003400340034003490
:107060000034003400340034003400340034003480
:107070000034003400340034003400340034003470
:020000040001F9
:04000E001CEFFFD70D
:080000000D0008000A000400D5
:00000001FF
