:020000040000FA
:1000000080311128FF3FFF3F803120007F08F00042
:100010000B1D0D280B1190310C2070082000FF00E3
:10002000090080311328FC01E33084000030850092
:100030000D30903124208031203084000130850043
:100040004230903124208031D83084000130850046
:10005000113090312420803132308400903085007E
:100060006230860001308700083090311E208031D8
:100070000330840095308500A03086000130870071
:10008000383090311E2020009631B72E2100DF003D
:10009000E001103060020318612820302000E200E7
:1000A00021006008CE3E86008701200062088100A2
:1000B0000130E20062082100E00710306002031CFA
:1000C0004D28E0011030600203187A28203020000B
:1000D000E20021006008BE3E860087012000620821
:1000E00081000130E20062082100E0071030600268
:1000F000031C662802305F0603198E2803305F0652
:1001000003198E2804305F0603198E2805305F0618
:1001100003198E2806305F06031D742AE001503053
:100120002000E20021006008CE3E8600870120000A
:10013000620881000130E20062082100E0077230AD
:100140002000E20021006008CE3E860087012000EA
:10015000620881000130E20062082100E0076F3090
:100160002000E20021006008CE3E860087012000CA
:10017000620881000130E20062082100E007673078
:100180002000E20021006008CE3E860087012000AA
:10019000620881000130E20062082100E00772304D
:1001A0002000E20021006008CE3E8600870120008A
:1001B000620881000130E20062082100E00761303E
:1001C0002000E20021006008CE3E8600870120006A
:1001D000620881000130E20062082100E0076D3012
:1001E0002000E20021006008CE3E8600870120004A
:1001F000620881000130E20062082100E0076D30F2
:100200002000E20021006008CE3E86008701200029
:10021000620881000130E20062082100E0076130DD
:100220002000E20021006008CE3E86008701200009
:10023000620881000130E20062082100E0077A30A4
:100240002000E20021006008CE3E860087012000E9
:10025000620881000130E20062082100E007693095
:100260002000E20021006008CE3E860087012000C9
:10027000620881000130E20062082100E0076F306F
:100280002000E20021006008CE3E860087012000A9
:10029000620881000130E20062082100E0076E3050
:1002A0002000E20021006008CE3E86008701200089
:1002B000620881000130E20062082100E007653039
:1002C0002000E20021006008CE3E86008701200069
:1002D000620881000130E20062082100E0073A3044
:1002E0002000E20021006008CE3E86008701200049
:1002F000620881000130E20062082100E007063058
:100300005F06031DCB2905302000E20062082100B2
:10031000E00052302000E20021006008BE3E86006E
:1003200087012000620881000130E200620821009C
:10033000E00745302000E20021006008BE3E860054
:1003400087012000620881000130E200620821007C
:10035000E00753302000E20021006008BE3E860026
:1003600087012000620881000130E200620821005C
:10037000E00745302000E20021006008BE3E860014
:1003800087012000620881000130E200620821003C
:10039000E0075430822C05302000E2006208210082
:1003A000E00049302000E20021006008BE3E8600E7
:1003B00087012000620881000130E200620821000C
:1003C000E00744302000E20021006008BE3E8600C5
:1003D00087012000620881000130E20062082100EC
:1003E000E0073A302000E20021006008BE3E8600AF
:1003F00087012000620881000130E20062082100CC
:10040000E00702305F06031D272A3F302000E2008C
:1004100021006008BE3E860087012000620881003E
:100420000130E20062082100E0073F302000E200D6
:1004300021006008BE3E860087012000620881001E
:100440000130E20062082100E0073F30822C0330D7
:100450005F06031D2E2A220049083D2A0430210090
:100460005F06031D362A22004B083D2A0530210075
:100470005F06031D4C2A22004D082000E200E30124
:100480006208A8006308A9000A30AA000030AB0087
:10049000BA309231CD2280312100DE0104305E027B
:1004A0000318D32E5E08BA3E86008701010803199F
:1004B000D32E5E08BA3E8600870101082000E200C4
:1004C00021006008BE3E860087012000620881008E
:1004D0000130E20062082100E00701302000E20064
:1004E00062082100DE074E2A5F03031D922CE00103
:1004F00042302000E20021006008CE3E86008701E5
:100500002000620881000130E20062082100E0075B
:1005100061302000E20021006008CE3E86008701A5
:100520002000620881000130E20062082100E0073B
:1005300074302000E20021006008CE3E8600870172
:100540002000620881000130E20062082100E0071B
:1005500074302000E20021006008CE3E8600870152
:100560002000620881000130E20062082100E007FB
:100570002E302000E20021006008CE3E8600870178
:100580002000620881000130E20062082100E007DB
:100590003A302000E20021006008CE3E860087014C
:1005A0002000620881000130E20062082100E007BB
:1005B00020302000E20021006008CE3E8600870146
:1005C0002000620881000130E20062082100E0079B
:1005D00043302000E20021006008CE3E8600870103
:1005E0002000620881000130E20062082100E0077B
:1005F0003D302000E20021006008CE3E86008701E9
:100600002000620881000130E20062082100E0075A
:100610002200C51C302B20082000D7002200210812
:100620002000D800220022082000D900CE30E200AD
:100630006208DA000330E3006308DB002100600891
:100640002000E4006408DC008A316E228031013E23
:100650002000E50065082100E000013020005C2B4F
:100660003F302000E20021006008CE3E8600870176
:100670002000620881000130E20062082100E007EA
:100680002E302000E20021006008CE3E8600870167
:100690002000620881000130E20062082100E007CA
:1006A0003F302000E20021006008CE3E8600870136
:1006B0002000620881000130E20062082100E007AA
:1006C00056302000E20021006008CE3E86008701FF
:1006D0002000620881000130E20062082100E0078A
:1006E000E00150302000E20021006008BE3E86009C
:1006F00087012000620881000130E20062082100C9
:10070000E0073D302000E20021006008BE3E860088
:1007100087012000620881000130E20062082100A8
:10072000E0072200451CB92B23082000D700220037
:1007300024082000D800220025082000D900BE305F
:10074000E2006208DA000330E3006308DB00210006
:1007500060082000E4006408DC008A316E228031E9
:10076000013E2000E50065082100E0000130200086
:10077000E52B3F302000E20021006008BE3E8600ED
:1007800087012000620881000130E2006208210038
:10079000E0072E302000E20021006008BE3E860007
:1007A00087012000620881000130E2006208210018
:1007B000E0073F302000E20021006008BE3E8600D6
:1007C00087012000620881000130E20062082100F8
:1007D000E00756302000E20021006008BE3E86009F
:1007E00087012000620881000130E20062082100D8
:1007F000E00720302000E20021006008BE3E8600B5
:1008000087012000620881000130E20062082100B7
:10081000E00756302000E20021006008BE3E86005E
:1008200087012000620881000130E2006208210097
:10083000E0073D302000E20021006008BE3E860057
:1008400087012000620881000130E2006208210077
:10085000E0072200451D512C35082000D70022005A
:1008600036082000D800220037082000D900BE300A
:10087000E2006208DA000330E3006308DB002100D5
:1008800060082000E4006408DC008A316E228031B8
:10089000013E2000E50065082100E0000130200055
:1008A0007D2C3F302000E20021006008BE3E860023
:1008B00087012000620881000130E2006208210007
:1008C000E0072E302000E20021006008BE3E8600D6
:1008D00087012000620881000130E20062082100E7
:1008E000E0073F302000E20021006008BE3E8600A5
:1008F00087012000620881000130E20062082100C7
:10090000E00756302000E20021006008BE3E86006D
:1009100087012000620881000130E20062082100A6
:10092000E007D32E5F08031DD32EE00143302000E3
:10093000E20021006008CE3E8600870120006208A8
:1009400081000130E20062082100E0073A30200017
:10095000E20021006008CE3E860087012000620888
:1009600081000130E20062082100E0072030200011
:10097000E20021006008CE3E860087012000620868
:1009800081000130E20062082100E0072200C51C5E
:10099000EC2C2C082000D70022002D082000D800C5
:1009A00022002E082000D900CE30E2006208DA00D2
:1009B0000330E3006308DB00210060082000E4004E
:1009C0006408DC008A316E228031013E2000E5009F
:1009D00065082100E0001C2D3F302000E2002100CE
:1009E0006008CE3E86008701200062088100013049
:1009F000E20062082100E0073F302000E200210011
:100A00006008CE3E86008701200062088100013028
:100A1000E20062082100E0073F302000E2002100F0
:100A20006008CE3E86008701200062088100013008
:100A3000E20062082100E00757302000E2002100B8
:100A40006008CE3E860087012000620881000130E8
:100A5000E20062082100E00720302000E2002100CF
:100A60006008CE3E860087012000620881000130C8
:100A7000E20062082100E00750302000E20021007F
:100A80006008CE3E860087012000620881000130A8
:100A9000E20062082100E0073A302000E200210075
:100AA0006008CE3E86008701200062088100013088
:100AB000E20062082100E00720302000E20021006F
:100AC0006008CE3E86008701200062088100013068
:100AD000E20062082100E0072200451C922D320846
:100AE0002000D700220033082000D800220034085C
:100AF0002000D900CE30E2006208DA000330E300C3
:100B00006308DB00210060082000E4006408DC00CA
:100B10008A316E228031013E2000E5006508210007
:100B2000E000C22D3F302000E20021006008CE3EF0
:100B3000860087012000620881000130E20062081F
:100B40002100E0073F302000E20021006008CE3E97
:100B5000860087012000620881000130E2006208FF
:100B60002100E0073F302000E20021006008CE3E77
:100B7000860087012000620881000130E2006208DF
:100B80002100E00757302000E20021006008CE3E3F
:100B9000860087012000620881000130E2006208BF
:100BA0002100E007E00144302000E200210060085D
:100BB000BE3E860087012000620881000130E2000D
:100BC00062082100E0073A302000E20021006008BE
:100BD000BE3E860087012000620881000130E200ED
:100BE00062082100E00720302000E20021006008B8
:100BF000BE3E860087012000620881000130E200CD
:100C000062082100E0072200C518451C552E2C085B
:100C10002000A00022002D082000A10022002E08A4
:100C20002000A20022003208F1003308F20034084C
:100C3000F30090312A20803171082000A30072084F
:100C4000A4007308A5008631EF268031200020081B
:100C50002100B700200021082100B8002000220850
:100C60002100B90037082000D700210038082000F3
:100C7000D800210039082000D900BE30E200620807
:100C8000DA000330E3006308DB0021006008200085
:100C9000E4006408DC008A316E228031013E2000CD
:100CA000E50065082100E000852E3F302000E200CD
:100CB00021006008BE3E8600870120006208810096
:100CC0000130E20062082100E0073F302000E2002E
:100CD00021006008BE3E8600870120006208810076
:100CE0000130E20062082100E0073F302000E2000E
:100CF00021006008BE3E8600870120006208810056
:100D00000130E20062082100E00757302000E200D5
:100D100021006008BE3E8600870120006208810035
:100D20000130E20062082100E0072200C51CA92E64
:100D30002008F1002108F2002208F3000030F4003E
:100D40002030F5004030F600953175258031031CC8
:100D5000D12E2200451CBD2E2308F1002408F200EC
:100D60002508F3000030F4002030F5004030F60094
:100D7000953175258031031CD12E2200451DD32EBF
:100D80002608F1002708F2002808F3000030F400DC
:100D90002030F5004030F60095317525803103187C
:100DA000D32E2100CD012000A001CE30E200620848
:100DB000A1001030E3006308A200003096317126D4
:100DC00080312000A001BE30E2006208A100103096
:100DD000E3006308A200013096317126080020006C
:100DE0002008A6002108A7002208A8000310270D4C
:100DF000280DA9002908FB002308A6002408A70045
:100E00002508A8000310270D280DA9002908FA00BD
:100E10007B080319172F7A087B0203181E2F7B0308
:100E2000FF3A7A07A60019302602031C1E2F23085A
:100E3000A0002408A1002508A20008007A080319D0
:100E400008007B087A0203182D2F7A03FF3A7B07EC
:100E5000A60019302602031808000630A60026084E
:100E6000F900A21BF917A51B7917A117FF30A005E0
:100E7000FF30A1050030A205A417FF30A305FF3005
:100E8000A4050030A5057A087B020318692F0130FC
:100E9000A335A40DA50D890B482F0130FA027A085D
:100EA0007B060319642F0130F90279080739031909
:100EB000642F472F0130A236A10CA00C890B5B2FA9
:100EC0000130A6002608FB077B087A0603198E2F3F
:100ED0005A2F7B087A0203188E2F0130A035A10DFE
:100EE000A20D890B6E2F0130FB027A087B060319D5
:100EF0008A2F0130F9027908073903198A2F6D2FDB
:100F00000130A536A40CA30C890B812F0130A6005B
:100F10002608FA077B087A06031D802FF91FA02FE9
:100F2000FF30A006FF30A106FF30A2060130A00767
:100F3000003003180130A107003003180130A20768
:100F4000791FB22FFF30A306FF30A406FF30A5069D
:100F50000130A307003003180130A4070030031844
:100F60000130A507F9012008A3072108A43D2208A4
:100F7000A53DA51FCD2FFF30A306FF30A406FF30EF
:100F8000A5060130A307003003180130A407003084
:100F900003180130A507F901F90A2308F100240814
:100FA000F2002508F3007B08A6002608F400790863
:100FB000A7002708F5008831E02071082000A00074
:100FC0007208A1007308A2000800F501F601711C67
:100FD000ED2F7308F5077408F63D0130F335F40D75
:100FE000890BEE2F0130F236F10C890BF32F7108CB
:100FF0007204031DE72F7608F2007508F10008005F
:10100000F2001A280630210095007130990009304D
:1010100097006330200095008B16FB30F1007108BB
:101020008B0591019201210091019201080022009B
:10103000C10108007208003A03190228013A031995
:101040001728222808002000E60071282100E80166
:10105000E6012200B801B9012100E301E4010030FA
:101060002200B2000030B3000030B4000030AC0009
:101070000030AD000030AE000030AF000030B000F6
:101080000030B1000030A9000030AA000030AB00F1
:101090000030B5000030B6000030B7000030A300CB
:1010A0000030A4000030A5000030A0000030A100F6
:1010B0000030A2000030A6000030A7000030A800D9
:1010C000080036309031E420883133309031E4200C
:1010D000883134309031E42088310030803146202E
:1010E000080020006608003A03197D28013A031918
:1010F0002628033A031961287D2808002000A7004C
:101100002108A5002008A4002308F2002208F1000D
:101110002508F4002408F3009431CF2488317208A4
:101120002000A5007108A4000130F9007908A70784
:1011300024082504031D84282708860087018101CF
:101140000130A7022308F2002208F1002108F40070
:101150002008F30094310C2488317108F9007908D3
:101160002000A6002308F2002208F1002108F40064
:101170002008F3009431CF24883172082000A100A8
:101180007108A0000A302602031CCA280730F900A3
:101190007908A6073030F9007908A6072608F90073
:1011A000270886008701790881000130A7022008FE
:1011B0002104031DA2280130F9007908A7070800BF
:1011C00074080319E828730872047104031DF928D0
:1011D0000030F1000030F2000030F3000800013070
:1011E000F6007608F4070130F336F20CF10C890BA7
:1011F000F428FE30730503191229EF280130F60098
:101200007608F4070130F107003003180130F207C7
:10121000003003180130F3070130F336F20CF10C03
:10122000890B0D29FF30730503192329FE2802308D
:101230007402031C25290130F4020130F135F20D4E
:10124000F30D890B1E29F21F172974182D29FF3061
:10125000F1057F30F205FF30F3050310F40C74083C
:10126000F600F701F8011030F635F70DF80D890B8F
:1012700034297608F1047708F2047808F304750835
:1012800003190800F317080020003008B4003108E3
:10129000B5003208B6000310350D360DB70037081B
:1012A000BD003D08031D5D290030B3000030B200D1
:1012B0000030B1000030B00008003008B400310840
:1012C000B5003208B6001730B636B50CB40C890B31
:1012D00064293408B7003708B800B117FF30B005EB
:1012E000FF30B1050030B2053008B9003108BA004E
:1012F0003208BB00BC018E30BD02BD1F9B293D08DA
:10130000803A8F3E03188D290030B3000030B200C0
:101310000030B1000030B00008000130BC36BB0C1A
:10132000BA0CB90C890B8E290130B4003408BD0702
:101330000319B4298D2918303D02031CB12900304E
:10134000B3000030B2000030B1000030B00008003F
:101350000130B935BA0DBB0DBC0D890BA92901307F
:10136000BD023D08031DA82938080319C229B9097F
:10137000BA09BB09BC09B90A0319BA0A0319BB0A9D
:101380000319BC0A3C08B3003B08B2003A08B1009C
:101390003908B0000800D8302000CD004D08D60034
:1013A0004908F1004A08F2004B08F3000030F4004D
:1013B0000030F5000030F6009531752589310318AD
:1013C000FE292D302000CD00560886000130870010
:1013D0004D0881000130CD004D08D6074908F100C5
:1013E0004A08F2004B08F30090312A208931710835
:1013F0002000C9007208CA007308CB002000490809
:10140000B0004A08B1004B08B2008931442189314B
:1014100020003308D5003208D4003108D30030084A
:10142000D2005508A3005408A2005308A100520896
:10143000A00093318A23893120002008AA002108C6
:10144000AB002208AC004908AD004A08AE004B08CA
:10145000AF009131EC21893120002A08C9002B0806
:10146000CA002C08CB004908A3004A08A4004B0876
:10147000A5002430A0007430A1004930A2008B31B7
:101480001523893120002008B0002108B10022086E
:10149000B20089314421893120003308D10032085B
:1014A000D0003108CF003008CE003330AD00983086
:1014B000AE005508B2005408B1005308B0005208FD
:1014C000AF005108B6005008B5004F08B4004E08F0
:1014D000B30056088E311D26D8300800200057086A
:1014E000C9005808CA005908CB00B030DD005D08BB
:1014F000CC008931CB218A312000DE005E0821003A
:10150000B400B301B601103036020318E52A3608DC
:1015100034072000DD005D088600013087002E3092
:101520000106031D9C2A2100B301B30A36082000DE
:10153000DD005D082100B200210033080319BD2A37
:1015400032082000DD00DE01DD09DE09DD0A0319B5
:10155000DE0A2100360820005D07DF005E08031860
:101560005E0AE0006008803AE10080306102031DFD
:10157000BB2A03305F020318E52A2100360834072E
:101580002000DD005D088600013087000108031996
:10159000E52A2100360834072000DD005D088600BA
:1015A000013087000108DE0021003608A03E8600D9
:1015B000870120005E0881000130DD005D08210008
:1015C000B60710303602031C872A20005B08210072
:1015D0003602031CF22A20005B08FF3EDD005D0896
:1015E0002100B600B501360835020318112B350865
:1015F000A03E8600870101082000DD005C085A0734
:10160000DE002100350820005E07DF005F0886004D
:1016100087015D0881000130DD005D082100B5070C
:10162000F32A350820005C07080020002008A600E7
:101630002108A7002208A8000310270D280DA900E3
:101640002908AA002A08031D2C2B0030A000003016
:10165000A1000030A20008002308A6002408A7006B
:101660002508A8000310270D280DA9002908AF00A0
:101670002F08031D422B0030A0000030A1000030D5
:10168000A20008002F087B3EA6002608AA07200813
:10169000A6002108A7002208A8001030A836A70C31
:1016A000A60C890B4E2B2608A9002908AF00230899
:1016B000A6002408A7002508A8001030A836A70C0B
:1016C000A60C890B5E2B2608A9002908AF068030DE
:1016D000A6002608AF05A117A417FF30A305FF3009
:1016E000A4050030A5050030AB000030AC00003090
:1016F000AD000730A6002608AE00201C852B23086D
:10170000AB072408AC3D2508AD3D0130A236A10C45
:10171000A00C890B862B0130A335A40DA50D890BD8
:101720008C2B0130AE02031D7D2B0930A60026084C
:10173000AE00201CA12B2308AB072408AC3D2508D4
:10174000AD3D0130A236A10CA00C890BA22B0130BB
:10175000AD36AC0CAB0C890BA82B0130AE02031DCF
:10176000992B2B08F1002C08F2002D08F3002A0811
:10177000A6002608F4002F08A7002708F5008831E6
:10178000E02071082000A0007208A1007308A200E8
:1017900008008B132300151515132000E201E0301B
:1017A0007105E000FF307205E10071081F39F50096
:1017B0007508E300740862020318822C640020009C
:1017C000E401203064020318092C6400200064083E
:1017D0006007F50061080318610AF6007508230028
:1017E00091007608920015141518F42B200064352A
:1017F000203E8600870123001308C03F1408C13F24
:101800000130F50075082000E40720306402031C55
:10181000E52B23001516200061082300920020000C
:1018200060082300910055309600AA309600951468
:101830009518182C000000002030200063020318C7
:10184000452C64007408200062020318452C6208CD
:101850007307F50075088600013087000108F6005F
:10186000F7016335203E860087017608C03F770880
:10187000C13F0130F5007508E2070130F500750839
:10188000E30720306302031C212CE301E401203034
:10189000640203187D2C64086007F50061080318D2
:1018A000610AF60075082300910076089200200076
:1018B0006435203E86008701403F23009300413F6E
:1018C00094001F3020006406031D692C230095122C
:1018D0006B2C2300951655309600AA30960095146F
:1018E0009518702C000000000130F50075082000EC
:1018F000E40720306402031C4B2C2030E00700304A
:10190000E13DDA2B8B17230015110800EE30F900AA
:101910000030FA00FB01FB0A3B30923188228C3107
:101920000A3021006E02031C080064000A30200007
:10193000E6006608A3004E30903172208C31210001
:10194000661D0A2D220047084E06031D0F2E81300A
:101950005106031D0F2E03305006031DBD2C4F08EA
:101960002000E60066082200CD0050082000E600B6
:1019700066082200CC004515DF2C5003031DCE2C39
:101980004F082000E60066082200C9005008200029
:10199000E60066082200C8004514DF2C023050061D
:1019A000031DDF2C4F082000E60066082200CB0054
:1019B00050082000E60066082200CA00C5149031D5
:1019C00080208C312100E614E8010330220050060B
:1019D000031DEC2C0530F82C22005003031DF22CC3
:1019E0000330F82C023022005006031DFB2C04307B
:1019F000803146208C31D030F1000730F200913137
:101A000067218C310030803146208C31903112209A
:101A10008C310F2E220047084E06031D172D490852
:101A20004F0603191B2D4B084F0603191B2D4D089C
:101A30004F06031D0F2E5108031D0F2E52082000C4
:101A4000E6006608EA00220053082000E600660867
:101A5000EB00220054082000E6006608EC0022009B
:101A600054082000E6006608ED002200550820001A
:101A7000E6006608EE00220056082000E600660830
:101A8000EF00220050030319451C632D49084F063F
:101A9000031D632D20006A082200AF0020006B08A0
:101AA0002200B00020006C082200B10020006D0868
:101AB0002200A30020006E082200A40020006F086E
:101AC0002200A500A62D023050060319451C852DC5
:101AD0004B084F06031D852D20006A082200A9002F
:101AE00020006B082200AA0020006C082200AB0036
:101AF00020006D082200A00020006E082200A10036
:101B000020006F082200A200A62D03305006031902
:101B1000451DA62D4D084F06031DA62D20006A0861
:101B20002200B50020006B082200B60020006C08DF
:101B30002200B70020006D082200A60020006E08D9
:101B40002200A70020006F082200A800003020001B
:101B5000E7006630E8004330E9002200451DBB2D58
:101B600035082000E700220036082000E8002200A7
:101B700037082000E9002200451CDE2D2F08200038
:101B8000A000220030082000A1002200310820001F
:101B9000A2006708A3006808A4006908A5008B31AB
:101BA00015238C31200020082200B20020002108DB
:101BB0002200B300200022082200B400C51C002E21
:101BC00029082000A00022002A082000A1002200ED
:101BD0002B082000A2006708A3006808A400690879
:101BE000A5008B3115238C31200020082200AC0089
:101BF000200021082200AD00200022082200AE00B3
:101C00004F089231AA228C31210063086404031921
:101C10000B2E01300C2E0030803146208C31EE30FE
:101C2000F9000030FA00FB01FB0A3B3092318822B8
:101C30008C319331B5238C31902C2000C3002F3090
:101C4000B7003708BE002E08B8002D08B700AD0A4F
:101C50000319AE0A37088400380885000008B90067
:101C60003908C80048080319FA2F25304806031917
:101C7000462E4808B7004308860001308700370821
:101C800081000130B7003708C307232EC401C50106
:101C9000BD012D0884002E088500000890316420C5
:101CA0008E31031C842E2000C401C5010A30F100CE
:101CB0000030F20020004508F4004408F3008731AA
:101CC000E5278E3172082000C5007108C4002D0878
:101CD00084002E0885000008D03EB700FF300318AE
:101CE0000030B8003708C4073808C53D0130AD07DB
:101CF0000030AE3D2D0884002E088500000890318C
:101D000064208E310318562E20002D0884002E08E2
:101D1000850012002E3A031DC22E0130AD0700309F
:101D2000AE3DC601C7012D0884002E0885000008BD
:101D3000903164208E31031CCD2E20002D088400AC
:101D40002E0885000008B700B8014708F2004608D1
:101D5000F1000A30F3000030F4008731E5278E31BE
:101D6000200037087107B9003808723DBA003908F9
:101D7000D03EC600FF303A3DC7000130AD0700300D
:101D8000AE3D932E2000C601C701CD2E3D16CD2EAF
:101D9000C030B7003708BD04E52E20002E08B8007B
:101DA0002D08B700AD0A0319AE0A370884003808B9
:101DB00085000008C800003A0319FA2F6C3A03198D
:101DC000C62E193A0319C82E232E3D1EF42E3E08A6
:101DD00086008701403FBF00413FC000423FC10035
:101DE000433FC2000430022F3E0886008701403F77
:101DF000B700413FB8003708BF003808C000C10134
:101E0000C2010230B7003708BE0746084704031D69
:101E1000132F4208410440043F04031D132F0130D7
:101E2000C6070030C73DC801C80A0A304806031972
:101E3000462F4808B700B801B735B80DB735B80D0B
:101E40000030370784009830383D8500003FB900E6
:101E5000013FBA00023FBB00033FBC003C08420206
:101E6000031D3C2F3B084102031D3C2F3A08400252
:101E7000031D3C2F39083F02031C462F0130B700D9
:101E80003708C8070A304806031D192F4808B7004D
:101E9000B801B71BB8033808803AB9004708803A40
:101EA0003902031D552F4608370203185D2F200005
:101EB0004608B7003708C800752F20004808B7004B
:101EC000B801B71BB8034708803AB9003808803A10
:101ED0003902031D6D2F370846020318752F2000A5
:101EE0004808C600C701C61BC70320004808B70042
:101EF000B801B71BB8033808803AB9004508803AE2
:101F00003902031D852F440837020318922F200041
:101F10004808B700B801B71BB8033708C40238082F
:101F2000C53B952F2000C401C50144084504031991
:101F3000EF2F2030B70043088600013087003708B4
:101F400081000130B7003708C307FF30C407FF30F6
:101F5000C53D952F0030A8000030A7000030A60036
:101F60000A30A50047088500460884008435850DA1
:101F70008435850D003084079830853D003FF100A1
:101F8000013FF200023FF300033FF4004208F80073
:101F90004108F7004008F6003F08F5009731572741
:101FA0008E3174082000AC007308AB007208AA00E0
:101FB0007108A90096312E268E3120002508303E6A
:101FC000B7003708C8004808B7004308860001304A
:101FD0008700370881000130B7003708C307FF309A
:101FE000C607FF30C73D460A031DAA2F470A03193B
:101FF000232EAA2F430886000130870081010800A4
:10200000FF3FFF3FFF3FFF3FFF3FFF3FFF3F2100FD
:1020100066159231472208002200411463302000E7
:102020009500080021006611E801E301E4010800C1
:1020300020000D1808008C3186240800FE001200D4
:102040001E00FE0B1F280034640080010131890B43
:1020500025280034730872047104031908008030C5
:10206000F306080003340F341E342734503481340F
:10207000CB34C234F9007908F8007808F500013053
:102080009731AA2708002200BC01BD01210065107C
:1020900065150030803146200800F10052282300E9
:1020A000950108007108003A03194F2857280800C5
:1020B0005C3022004306031D6128C5304406031925
:1020C0000800913150210800F200F1013A3072020B
:1020D0000318702830307202031C7028F101F10AD5
:1020E000710C08002000A5002508F9000130FA0055
:1020F0002308A4002408FB003F3092318822080006
:102100002830F1009830F2004330F8007808F300EE
:102110000B30F9007908F4008B31C923080028300E
:10212000F1009830F2004330F8007808F3000B30EB
:10213000F9007908F40093311523080022003C08C7
:102140003D04031908000130BC020030BD3B3C08CF
:102150003D04031D0800903143200800F301F40101
:1021600072087402031DB628710873020318080070
:10217000640000320130F3070030F43DB028F10074
:10218000CB282100E901EC01ED012200C201210070
:10219000EA01EB0108007108013A0319C128D028AF
:1021A00008002000A400D7289531B02508002000A1
:1021B0002408003A0319E328013A0319E328033AF3
:1021C0000319D428E3280800F80022008C127808AC
:1021D0003F398038F7007708F9007930F100003096
:1021E000F200F301F30A9131CF2122008C1608008E
:1021F000FA007808F9007908FB007A03031D042926
:102200004030F9007908FB077B088038F90079082D
:10221000F50000309731AA27080022004508031D69
:1022200008002100651C172990314320080065141F
:10223000E514E8302200BC000330BD0002308031DC
:1022400046200800F20033290730F1007108210010
:102250008D040E16F830F100710823008D0507304B
:1022600024008D0008007208003A03192429382937
:102270000800F2004A2921008C010730F1007108A2
:102280008D051030F10071088E0523008C018D0141
:102290008E0108007208003A03193B294F290800F3
:1022A0005C30FA007A082200C300C530FA007A08D0
:1022B000C400C501C50AC701C601C901C801CB01D7
:1022C000CA01CD01CC019031802001000800F50148
:1022D000F60172087602031D6F2971087502031852
:1022E000080064000330F4009730F300F30B762904
:1022F000F40B762900320130F5070030F63D6929EC
:10230000220045080319080021006308640403192A
:1023100090290030803146202100E301E4010800CB
:10232000013080314620F4302100E3000130E40028
:102330000800FB00AA2901302000980008002200B4
:10234000BC01BD012100E50190318F209131903118
:10235000582008007B08003A03199B29013A031909
:102360009F29B2290800F200F3017218F315F21840
:1023700073157219F314F21973140F30F100710808
:10238000F3057308F100710822008C04F030F100AD
:102390007108F3047308F10071088C050800F60158
:1023A0007308760203180800200091117608F400E3
:1023B000F5017408710786007508723D87000108F1
:1023C0002400910020009119E7290000E229013042
:1023D000F4007408F607D02920002C082B042A04E6
:1023E0000319F4298030AC062D08A0002E08A100A6
:1023F0002F08A2002A08A3002B08A4002C08A5007F
:102400008631EF2620002008AA002108AB00220810
:10241000AC000800F2001C2A21000E16D730F10093
:1024200071088E05240095129101013095009601E6
:1024300040309400951608007208003A03190C2ADF
:10244000013A0319272A033A0319272A272A0800E1
:10245000FA0022008C127A083F394038F9007908D6
:10246000FB007B30F1000030F200F301F30A913100
:10247000CF2192317708F1000130F2007808F9009D
:102480007908F3009131CF2122008C160800220038
:10249000D80147082000A70027082200D900DA0148
:1024A000DB01DB0ADC01DD01DE01DE01DF01E00131
:1024B0000A302000A7002708A300583097310527CD
:1024C0000A302000A70027082100E80008002100AA
:1024D000ED0120000D196E2A21006D1421006D08F8
:1024E0000139F1006C080139710603197E2A6C105C
:1024F0006D1C7B2A6C142100E70169146C1C822A74
:10250000E91408002200BA01BB012100E91008000B
:102510002000A10022008C12200021083F39C03881
:10252000A0002008A2002230F1000030F200F301E8
:10253000F30A9131CF2192317908F1007A08F20043
:102540007B082000A0002008F3009231F122220035
:102550008C1608002000A8002808A70027082200E1
:10256000D80047082000A70027082200D900DA0178
:1025700080302000A70027082200DB00DC01DD01FD
:10258000DE01DE01DF01E0010A302000A70027089C
:10259000A30058309731052708002000AD002D0812
:1025A000FA007A08AC00A91FE52A2D30FA002D08A0
:1025B000860087017A0881000130FA007A08AD07A9
:1025C000A809A909A80A0319A90A2908A100280825
:1025D000A0002B08A3002A08A2002D0888317E2025
:1025E0000800F80173087802031808002000911110
:1025F000FF302400910020009119002B0000FB2ADD
:102600007808F400F50174087107F6007508723D4A
:10261000F7007608860077088700240011088100FB
:102620000130F4007408F807F22A23001513F701AB
:102630007408770203180800640077087107F50032
:1026400072080318720AF6007508230091007608D4
:102650009200151415182A2B1308F5007708730734
:10266000F600760886000130870075088100013089
:10267000F5007508F707182B2100691C4F2B013056
:10268000F1007108E70706306702031C4F2B691041
:10269000E7016C1C4D2B6A144F2B220042142100C1
:1026A000E91C080001302200BA070030BB3D0030B1
:1026B0003B02C93003193A02031C0800BA01BB01EE
:1026C00021006B140800200016081706E6006608B3
:1026D0002200C700C901C801CB01CA01CD01CC014C
:1026E000C501C50A903180209331063080314620E3
:1026F0009331D030F1000730F200913167219331EE
:102700000030803146209331903143209331903115
:10271000122008008E30F9007908FA00FF302000FE
:1027200023050319A02B01302000A336A20CA10C15
:10273000A00C890B942B0130F9007908FA078E2B35
:102740002008F1002108F2002208F3007A08F900BD
:102750007908F400F5018831E02071082000A0001C
:102760007208A1007308A20008007C30F900003054
:10277000FA00FB01FB0A3530923188229331D42BC9
:1027800034309031E42008003A309031E420933125
:1027900034309031E42008003B309031E420933114
:1027A00034309031E42008007C08013A0319C02B32
:1027B000103A0319C42B073A0319CC2BDF2B08005E
:1027C0002000A000A20109302202031808002208FC
:1027D00020073F394038F9007908A1002108F900A5
:1027E0007908F50000309731AA279331200022089C
:1027F0007807F90079088600013087000108FA009F
:102800007A08F50001309731AA2793310130F90099
:1028100079082000A207E32B710872040319332CF6
:10282000F601F60AF21B1E2C0130F135F20D890B70
:10283000152C0130F5007508F607122C7208740289
:10284000031D242C71087302031C2A2C7108F30247
:102850007208F43B0130F236F10C890B2B2C01305D
:10286000F602031D1E2C7408F2007308F100080024
:102870002000A2005D2C2700940195010800303053
:102880009031E4209431A0302000A0002008F7000F
:102890002E30A1002108F800003092312822943116
:1028A00062302000A0002008F7000830A1002108B5
:1028B000F8003E3092312822080020002208003A19
:1028C00003193B2C013A0319692C033A03193F2CD5
:1028D000692C0800F60022000C127608031D722CE9
:1028E0000C13762C7603031D762C0C178C13643096
:1028F000F1000030F2009031AE20943122000C162D
:102900006430F1000030F2009031AE20943175084F
:102910000F399131B32194316430F1000030F2006D
:102920009031AE20943122000C126430F10000305E
:10293000F2009031AE2008002200411CA92C411069
:1029400095313B25943193313C23943190319E2035
:10295000943121006A1CB32C6A1091310D219431FD
:1029600091318021943121006B1CBA2C6B10933172
:10297000632394312100E61CC12CE61090314320E2
:1029800094312100E51CC82CE510903107209431CA
:102990002100651D08006511903112200800F60124
:1029A000F701710872040319FE2CF801F80AF21BF2
:1029B000E32C0130F135F20D890BDA2C0130F500F2
:1029C0007508F807D72C0130F635F70D890BE42C84
:1029D00072087402031DEE2C71087302031CF52C9F
:1029E0007108F3027208F43B76140130F236F10CF0
:1029F000890BF62C0130F802031DE32C7708F20056
:102A00007608F1000800473446344E340B34D33492
:102A100091340A3408340434003400340634003469
:102A2000213463349134CA348334023402343B3465
:102A3000343407343F34083416346C3403344034AF
:102A4000913487346B34FB3456341634E9342A34E9
:102A500000341F344134003459347F343F348134DE
:102A6000353409340E341F34113411341134113417
:102A700011341F3400349331B523953101302200D5
:102A8000B8070030B93D03303902E9300319380284
:102A9000031C582DB801B90136309031E42095312E
:102AA00033309031E42095313A309031E420953143
:102AB000210068080319642D0130E8026808031D2D
:102AC000642D923147229531210063086404031973
:102AD00008000130E3020030E43B63086404031D96
:102AE00008000030803146200800F31F8B2D71094B
:102AF000F7007209F8007309F900F70A0319F80AD8
:102B00000319F90A00307707F1000030783DF20030
:102B10008030793DF300F61FA12D7409F700750987
:102B2000F8007609F900F70A0319F80A0319F90AF7
:102B300000307707F4000030783DF5008030793DB3
:102B4000F6008030F3068030F60676087302031D27
:102B5000080075087202031D08007408710208005D
:102B60000F30F1000030F2009131672195312200E1
:102B70000C138C130230FB007B08F50000309431FD
:102B80006A2495312030FB007B082000A300A315A8
:102B90002308FB007B08F50000309731AA27953108
:102BA0000E30FB007B08F50000309731AA279531E5
:102BB0000630FB007B08F50000309731AA279531DD
:102BC000F501F50A00309731AA279531CF30FB0087
:102BD0007B08F80000309331E02308000F30F50047
:102BE000750821008C0422000C120C138C17643021
:102BF000F1000030F2009031AE20953122000C1629
:102C0000F60120000C1C062EF601F60A6430F100D5
:102C10000030F2009031AE20953122000C12643069
:102C2000F1000030F2009031AE20953122000C16F8
:102C30006430F1000030F2009031AE209531220076
:102C40000C126430F1000030F2009031AE20F03010
:102C5000F500750821008C0576080800200028087A
:102C60002704260425040319682EFB01FB0AA81B70
:102C7000452E0130A535A60DA70DA80D890B3A2EBE
:102C80000130FA007A08FB07372E28082C02031DB2
:102C9000532E27082B02031D532E26082A02031D3C
:102CA000532E25082902031C5D2E2508A90226089B
:102CB000AA3B2708AB3B2808AC3B0130A836A70C41
:102CC000A60CA50C890B5E2E0130FB02031D452EC0
:102CD0002C08A8002B08A7002A08A6002908A50090
:102CE00008002000A5002008A3002308F8002508FC
:102CF0009031F82096312000A40122082402031804
:102D0000080024082107A300230886008701010882
:102D100090313A2096319531EE259631003A0319DB
:102D2000932E00008B2E01302000A3002308A00763
:102D300010302006031DA22EA0010130A30023089D
:102D4000A507A92E203020002006031DB12EA001CA
:102D5000A5012008A3002308F80025089031F820D9
:102D6000963101302000A3002308A4077D2E210006
:102D7000E201033062020318F92E640021006208A8
:102D8000883100209631210062089131222196314C
:102D90002100620891313921963121006208903179
:102DA000BF2096312100620892310A22963121001B
:102DB00062089431382496312100620890314D2008
:102DC0009631210062089031D120963121006208AD
:102DD0008831232096312100620891319921963162
:102DE00001302100E1006108E20703306202031CA8
:102DF000BD2E8B17640094319C249631923167224A
:102E00009631903118209631FA2E2000A6006400E9
:102E10007C30F9000030FA00FB01FB0A35309231BA
:102E2000882297311F307C052000A4000D30240635
:102E30000319202F1F307C05A4002403031D072F36
:102E400036309031E4209731EE30F9000030FA004E
:102E5000FB01FB0A3B30923188229731EF30F900B9
:102E60000030FA00FB01FB0A3A3092318822973198
:102E70003B309031E4209731EF30F9000030FA0018
:102E8000FB01FB0A3A309231882297312000260854
:102E9000A4002408F7002308A5002508F8003F3007
:102EA00092312822973135309031E42008000030EB
:102EB0002000A3000030A2000030A1000030A000DC
:102EC00074087304720471040319A12FA401A40AE5
:102ED000F41B762F0130F135F20DF30DF40D890B53
:102EE0006B2F0130F9007908A407682F0130A03555
:102EF000A10DA20DA30D890B772F74087802031D75
:102F00008B2F73087702031D8B2F72087602031D27
:102F10008B2F71087502031C962F7108F502720839
:102F2000F63B7308F73B7408F83B20140130F43685
:102F3000F30CF20CF10C890B972F0130A402031D46
:102F4000762F2308F4002208F3002108F20020085D
:102F5000F1000800F70022000C127708031DB22FC1
:102F60000C13B62F7703031DB62F0C178C13643088
:102F7000F1000030F2009031AE20973122000C16A3
:102F80006430F1000030F2009031AE2097317508C6
:102F9000F6000430F636890BCA2F76080F399131C6
:102FA000B32197316430F1000030F2009031AE204F
:102FB000973122000C126430F1000030F2009031A1
:102FC000AE20973122000C166430F1000030F20080
:102FD0009031AE20973175080F399131B321973177
:102FE0006430F1000030F2009031AE2097312200C1
:102FF0000C126430F1000030F2009031AE20080075
:1030000001340034003400340A3400340034003415
:103010006434003400340034E834033400340034C1
:103020001034273400340034A034863401340034A2
:10303000403442340F3400348034963498340034B1
:103040000034E134F53405340034CA349A343B3466
:103050005C34C534013400340034003400340034AE
:1030600000340034003425346C3475342E34253467
:1030700036342E3436346C3475340034FF3FFF3F21
:020000040001F9
:080000000A000B0005000A00D4
:04000E001CEFFFD70D
:00000001FF
